:020000040800F2
:10000000D81F0520F58F0408058F0408078F040802
:10001000098F04080B8F04080D8F040800000000EE
:100020000000000000000000000000009D360308F2
:100030000F8F04080000000041360308118F0408E8
:100040003190040835900408399004083D90040864
:100050004190040845900408218F04084990040841
:100060004D900408519004085590040859900408D4
:100070005D90040861900408659004086990040884
:100080006D90040871900408759004087990040834
:100090007D900408819004088590040889900408E4
:1000A0008D90040891900408959004089990040894
:1000B0009D900408A1900408A5900408A990040844
:1000C000AD900408B1900408B5900408B9900408F4
:1000D000BD900408C1900408C5900408C9900408A4
:1000E000CD900408D1900408D5900408D990040854
:1000F000DD900408E1900408E5900408E990040804
:10010000ED900408F1900408F5900408F9900408B3
:10011000FD90040801910408AF52030805910408FA
:10012000099104080D91040811910408159104081F
:1001300019910408158F04081D91040821910408E1
:1001400025910408299104082D910408319104088F
:1001500035910408399104083D910408419104083F
:1001600045910408499104084D91040851910408EF
:1001700055910408599104085D910408000000009D
:100180006191040865910408699104086D9104085F
:100190007191040875910408799104087D9104080F
:1001A0008191040885910408899104088D910408BF
:1001B0009191040895910408999104089D9104086F
:1001C000A1910408A5910408A9910408AD9104081F
:1001D000B1910408B5910408B9910408BD910408CF
:1001E000C1910408C5910408C9910408CD9104087F
:1001F000D1910408D5910408003CFD00024F6666C9
:100200008100DA0000018100DC00F8FFDC00FAFF69
:100210008100D1001F01040000011A0320021A030B
:1002200020011A0320011A0320011A0320011A03D6
:1002300020E8190320E0001F020401015C0C0520E6
:10024000AC0C05205C0C05205C0C05205C0C05202A
:10025000411A0320281A0320E0000008FD000007CF
:10026000FD000006FD000005F900052BC000002C74
:10027000C0FA000006FD000007F900010304E600D3
:10028000056E1900008813FD000002FD000004FD4A
:10029000000008FD000010FD000320000020FC000D
:1002A0000624024000240240FC000301031C06F85F
:1002B00000FCAAFC000001F9000010FD0004C911B7
:1002C000000001FD0004931A000001FD0004D103A9
:1002D000000001FD0009356802081B63020800C028
:1002E000FA000001FC000980000800000240002420
:0502F000F4FA0000C05B
:020000040801F1
:100000000846704700281CBF0068002801D1002066
:10001000704790F901007047816B00291CBFD1F82F
:100020003C11002901D0086870470068816C0029E4
:10003000F9D100207047002918BF03F039BD70477F
:1000400030B583B00446206D0D4680B10FF220001C
:10005000019500905223DFF8642D01F07FFAE06CE7
:10006000236D2A46A90803B0BDE83040184737BDC4
:100070007365745F74696D657220746F20256420E8
:100080006D7300002DE9F04FB3B006460C461546DF
:100090009946684603F03DFD304603F021FD060019
:1000A00008BFDFF81C0D6BD003F056FE0746DDF8E5
:1000B000F4A0484603F058FEC0195044812828BFD8
:1000C000DFF8000D5CD2484603F04EFE834613A8CD
:1000D00000EB07085A464946404603F06DFE3C993E
:1000E000524608EB0B000AEB0B0903F065FE0122F8
:1000F0003146684603F02DFD002841D12A462146AD
:100100006846002403F074FD4A46414600F040F87A
:1001100000F039F83E9D3F9E09E003AB00EB040C74
:100120001B5C401C05F80C308842F6D31446B442E0
:1001300068461AD203F0E2FD09EB070200F027F847
:1001400003A900F021F8684603F0D8FD3A4600F014
:100150001EF800F018F83A1996423ABFB6FBF7F0CD
:1001600007FB106139460020DEE703F0D7FC802151
:1001700013A8FFF760FF402103A8FFF75CFF0020F2
:1001800033B0BDE8F08F13A9684603F08EBD13A904
:10019000684603F07ABD1FB500F00AF8062003E0B8
:1001A0001FB500F005F80720FFF76CFF04B010BD85
:1001B000089C00930394079C134602940A46069CED
:1001C0000146019470472DE9F04FE5B00446606B9D
:1001D000DFF8E8AB0590A56CA06B40F2F513049036
:1001E0000FF2604000F078FF2868DFF8D86B90F9D4
:1001F000080003F021FE5FEA000B286807D190F9A0
:10020000080040F2FB1301900FF248400DE090F916
:10021000090003F065FC079058B9286840F20323F1
:1002200090F9090001900FF24C4000F04FFF30466A
:1002300002E26069DFF8888BDFF8F09D032811D1B6
:1002400004984FF427714618286890F90900072888
:100250000DD1DFF8DC0DB0600FF2FD503060DFF83B
:10026000D40D0CE0CDF8009040F232239EE1DFF88F
:10027000C80DB0600FF27D503060DFF8C00D7060C7
:1002800004984FF42B71084403900498D0F830037D
:10029000002868D104984FF43B7140F24323524642
:1002A000084403210690F0680290069801900FF22E
:1002B000E83000F02AFEA06BD0F84403012838D1C2
:1002C0000FF2E83040F24B2300F08EFAA26B08A93F
:1002D0002046D2F89C2290476069032808D1A06C80
:1002E000006890F90900072814BF2027302700E094
:1002F0002427029708A801900FF2D03000904FF405
:1003000018735246032100F045FC302008AB0290E0
:1003100005980FF2C8322C3001900097F1680698CA
:10032000D6F808C0E047070018D001974FF41A73B9
:100330004AE03020039B029005980FF2FC322C30EB
:10034000019040200090F1680698D6F808C0E04778
:10035000070003D0019740F2752335E0069842214B
:10036000FFF769FE05E00FF28C304FF41F7300F0C9
:100370003BFA0399402254A803F02EFD0398202253
:100380005CA903F029FD04984FF43373202254A98B
:10039000184403F021FD402154A8FFF74CFE4FF410
:1003A0008070039B029014A8019040200090059853
:1003B000D6F808C00FF25C3230212C30E04707003D
:1003C00005D0019740F296239DA0009001E1059889
:1003D000006803F0FDFE01900FF24830009040F2FB
:1003E0009B23524601F0BAF830204FF42773029055
:1003F0000598524603212C3001900FF23C3000F05A
:1004000084FD402040F29D230290039801900FF25A
:1004100038300090524600F0B5FB4FF4807040F247
:100420009E23029014A801900FF22C3000905246A7
:10043000042100F0AFFB03984021FFF7FCFDDBF83F
:100440000400C00868609BF90100062818BF08284E
:100450002DD1002068610C20E86004202861286804
:10046000007F80074CBF10201820A860686940F208
:10047000FF230490E8680390A868029068680190E0
:100480000FF2E02000F0B0F902F0AAFA00F1858046
:10049000696914A800EB410202926868161814AA50
:1004A000114400912F69002F08BFEF683CE00799C5
:1004B000012205F1380003F04CFB070007D1079932
:1004C000012205F1440003F044FB070006D0019728
:1004D0000FF2C020009040F2BB237AE0079803F0AF
:1004E0003BFC68610598406F012804BF0A206861E1
:1004F000DBF80C006969E8609BF90120072A08BF56
:10050000A960B3D0DBF81420B1FBF2F102FB0121AA
:10051000A9606269022A14BF032A4018A5D0CDF849
:10052000009040F2F72341E031183A4605F11800F7
:1005300003F042FC68683A463018C11905F12800FA
:1005400003F03AFC606901282CDB6A6914A905F103
:10055000380003F04DFB6A69009905F1440003F08F
:1005600047FB2068D0F83CC0BCF1000F08D00197D1
:100570006968009105996B69006C14AA2C31E047F9
:10058000594605F1500003F08EFC07000FF21828C1
:1005900012D0019740F26D3319E0CDF8009040F28F
:1005A0002D3303E0CDF8009040F24933524601214B
:1005B00002F0C2FB40463FE005F188095946484633
:1005C00003F071FC070009D001974FF45D73CDF87B
:1005D0000080524601F0EFFB38462DE0DBF80420A6
:1005E0000299012305F150000FF2D41703F070FCBB
:1005F000050003D001954FF45F730BE0DBF8042096
:1006000000233146484603F063FC050008D00195FD
:100610004FF461730097524601F0CDFB28460BE082
:100620004FF4807114A8FFF706FD0FF2AC1040F2F2
:10063000BD3300F051FD002065B0BDE8F08F000033
:10064000707266003D3E20646572697665206B6558
:100650007973000063697068657220696E666F2047
:10066000666F72202564206E6F7420666F756E64ED
:10067000000000006D626564746C735F6D642069D6
:100680006E666F20666F72202564206E6F74206620
:100690006F756E64000000007072656D6173746543
:1006A0007220736563726574000000007573696E73
:1006B0006720657874656E646564206D6173746528
:1006C0007220736563726574000000007365737354
:1006D000696F6E206861736800000000657874655A
:1006E0006E646564206D61737465722073656372F6
:1006F000657400006E6F207072656D617374657251
:10070000202873657373696F6E20726573756D65EC
:10071000642900006B657920657870616E73696F7C
:100720006E00000063697068657273756974652096
:100730003D202573000000006D61737465722073A5
:10074000656372657400000072616E646F6D206293
:1007500079746573000000006B657920626C6F63CB
:100760006B0000006B65796C656E3A2025642C2067
:100770006D696E6C656E3A2025642C2069766C6517
:100780006E3A2025642C206D61636C656E3A2025DD
:10079000640000006D626564746C735F6D645F7308
:1007A00065747570000000006D626564746C735F41
:1007B0006369706865725F7365747570000000002E
:1007C0006D626564746C735F6369706865725F7392
:1007D00065746B65790000003C3D20646572697644
:1007E00065206B6579730000009052460321204616
:1007F00003F053BF70B59EB004460E4603A804F044
:100800002BFA0FF2AC0002F0DFF840F2164302F0D0
:1008100091FAA06B4FF4A871014403A804F025FAE3
:10082000314603A804F022FE202000F061F840F2D7
:100830001B4300F00BF80FF2A80040F21C4301F03C
:1008400063F903A804F00BFA1EB070BD2A46032119
:10085000204603F073BF000070B5BAB004460E46E0
:1008600004A804F06DFF0FF2600002F0ADF840F252
:100870002B4302F05FFAA06B4FF4E071014404A82F
:1008800004F067FF314604A805F0DBFB302000F0E0
:100890002FF84FF48663FFF7D9FF0FF2440040F2C0
:1008A000314301F031F904A804F04DFF3AB070BDB6
:1008B0003D3E2063616C63207665726966792073C2
:1008C00068613235360000003D3E2063616C632074
:1008D0007665726966792073686133383400000088
:1008E0003C3D2063616C6320766572696679000027
:1008F000019602900FF204000090704763616C63F0
:10090000756C6174656420766572696679207265BC
:1009100073756C74000000002DE9F04F04460FF26F
:10092000B8108DB0DFF89484009040F2EA4342465C
:1009300002212046DFF8889403F0AFFEE06ADFF87A
:10094000ECA600281CBF206C002804D1CDF800A024
:1009500040F2EE43B8E0503004F19005FFF752FB4F
:100960000646A8690290286901900FF27C10009059
:1009700040F2F543424600F005F9062E18BF082E56
:1009800040F09E80206C296809AF0068007F8007D6
:1009900009A84CBF08261026082203F00DFA686942
:1009A0000DF12D0300F0A2FAA86940F25B53424614
:1009B0000421000A8DF82F00A86938730D200290D9
:1009C00009A800F0E3F8206C0369C168C91A082976
:1009D00004D0CDF800A040F2635375E029681844B4
:1009E0000822183003F0E8F92968E868082203F0C3
:1009F000E3F9206C40F26C534246C1680069081A62
:100A000004210290E86801900FF2204000F07DFA86
:100A10002F69A8690790216C4FF4AF63CA68096910
:100A200010184246401A0021A86101900FF2D80028
:100A30000291032101F028FF079808A909AB07EBF1
:100A4000000B206C0696CDF814B00491039707991B
:100A500002910D2101970091C26800F118015030F8
:100A600003F0FEFA07000AD001970FF2D8000090B9
:100A700040F28553424601F09EF9384629E0089835
:100A80000799884204D0CDF800A040F28B531BE0B8
:100A9000A86940F29253424604213018A8610FF22F
:100AA000C000029600902046CDF804B003F046FE48
:100AB0000FF2C0004FF4C36301F08EFD002008E088
:100AC000CDF800A040F20D634246012102F034F956
:100AD00048460DB0BDE8F08F3D3E20656E637279EB
:100AE00070742062756600006265666F72652065CD
:100AF0006E63727970743A206F75747075742070BB
:100B000061796C6F616400006265666F7265206573
:100B10006E63727970743A206D73676C656E203DF8
:100B20002025642C20696E636C7564696E672025CE
:100B300064206279746573206F66207061646469F3
:100B40006E6700006D626564746C735F63697068E2
:100B500065725F617574685F656E63727970740049
:100B6000616674657220656E63727970743A207480
:100B7000616700003C3D20656E637279707420628D
:100B8000756600000421204603F0D8BD01900FF2E5
:100B90000C000090204603F0D1BD00006164646940
:100BA00074696F6E616C2064617461207573656433
:100BB00020666F7220414541440000002DE9F04F4E
:100BC00004460FF204208FB0DFF8F09100904FF44C
:100BD000C5634A4602212046DFF8E4A103F05DFD2B
:100BE000A06ADFF848B400281CBFE06B002804D1DD
:100BF000CDF800B040F22C63B7E08830DFF84C8DC0
:100C0000FFF700FAE26BA16F9368994206D2029354
:100C10000FF2C410019140F235639EE0062818BF20
:100C2000082840F09E801068007F8007D068126915
:100C30004CBF08251025801A2A18914207D2039527
:100C400040F2656302900FF2B010019185E0081A3E
:100C5000461BE06E082207900AAF09900AA8A66713
:100C6000E16D03F0A9F8606F0DF1310300F03EF97A
:100C7000A06F40F276634A460421000A8DF83300E3
:100C8000A06F38730D2002900AA8FFF77FFFE06B7A
:100C90000369C168CA1AA16E1844283003F08CF8A1
:100CA000E06B40F27D634A46C168283001900FF244
:100CB0007C100291042100F028F90798029540F277
:100CC0007E634A46042187190FF26810019700F0ED
:100CD0001CF9E06B0695059708A904910999039101
:100CE0000AAB0296079901910D210091C26800F1AB
:100CF0002801883003F0ECF905000DD001950FF2C2
:100D00004010009040F28B634A4601F054F815F50C
:100D1000C64F24D028464EE00898B04204D0CDF803
:100D200000B040F2966320E0A06F4FF4EF630290B2
:100D3000E06E01900FF2241000904A46FFF722FF68
:100D4000A06FC0B9D4F88400401C0428C4F8840003
:100D500014DB0FF224104FF4FD6300F0D0F840468E
:100D600029E0CDF800B040F273734A46012101F04A
:100D7000E3FF50461FE00020C4F884000820E16D26
:100D800000F076FAE16D014411F8011C11B9401E22
:100D9000F5D100E040B90FF2201040F2FE7300F0F0
:100DA000AEF8DFF8EC0D06E00FF2301040F603036A
:100DB00001F005F800200FB0BDE8F08FD037010832
:100DC0000094FFFF008FFFFF3D3E20646563727952
:100DD0007074206275660000696E5F6D73676C6584
:100DE0006E2028256429203C206D696E6C656E207C
:100DF00028256429000000006D73676C656E20284B
:100E0000256429203C206578706C696369745F698A
:100E1000765F6C656E2028256429202B207461671D
:100E20006C656E2028256429000000004956207555
:100E300073656400544147207573656400000000C9
:100E40006D626564746C735F6369706865725F611D
:100E50007574685F6465637279707400726177207D
:100E6000627566666572206166746572206465638A
:100E700072797074696F6E00726563656976656416
:100E800020666F757220636F6E7365637574697623
:100E90006520656D707479206D6573736167657326
:100EA0002C20706F737369626C6520446F532061EE
:100EB000747461636B000000696E636F6D696E67C7
:100EC000206D65737361676520636F756E746572FD
:100ED00020776F756C642077726170003C3D2064F0
:100EE00065637279707420627566000038722068DC
:100EF0006169406FC0F34002206902F049BC009074
:100F00004A460121204603F0C8BB0090204603F06A
:100F100015BC2DE9F04704460FF22C1084B00D46A5
:100F2000DFF81CA100904FF40A63524601F003FF62
:100F3000E069444F002804BF206A002804D10FF262
:100F4000902040F6A5030BE0216E41F2B530401A27
:100F5000A16D0818A84207D20FF2FC0040F6AB03BF
:100F600000F0B4F838465DE00295E06F0FF2081724
:100F70000190009740F63E135246022120460FF2A0
:100F8000141803F08AFB0FF2241902E0E06F301806
:100F9000E067E06FA8423ED2616D2E1A08000ED0C5
:100FA000E06C884702280AD1CDF8009060235246B1
:100FB00003212046DFF8686D03F06FFB11E0D4F8E1
:100FC00020C0206EE16FBCF1000F0144606A04D0C4
:100FD0002268136E3246E04702E0E36932469847E2
:100FE00006460295E06F019040F656130097524670
:100FF00001F0A1FE019640F65713CDF8008052464D
:10100000022100F0D9FE002E02D1DFF8180D09E010
:10101000BCD5304606E00FF2A40040F6631300F0A2
:101020005BF8002004B0BDE8F08700002C38010810
:10103000A1010108E5250108970101081325010810
:10104000D0370108008FFFFF3D3E2066657463685E
:1010500020696E70757400007265717565737469CE
:101060006E67206D6F7265206461746120746861C1
:101070006E20666974730000696E5F6C6566743A11
:101080002025642C206E625F77616E743A2025649F
:101090000000000073736C2D3E665F7265637628F6
:1010A0005F74696D656F75742900000074696D6502
:1010B0007220657870697265640000003C3D2066AE
:1010C0006574636820696E70757400000090524604
:1010D0000121204603F0E1BA009052460221204649
:1010E00003F0DBBA2DE9FE4380460FF2D400DFF8AF
:1010F000389C00904FF4176300F0C1F808F118060F
:10110000306840B90FF2C80040F6751300F0BCF823
:10111000DFF8180C51E008F1A8040FF2F00760683E
:1011200030B9009740F67C1344E06068401B606073
:10113000606830B30290206840F683134A4602216B
:10114000401D01900FF2D400009000F09AF8F06F6B
:10115000216862683368084451420844411DF068C0
:10116000984705460FF2D800019540F68913009084
:101170004A460221404603F0B6FA012DD5DA284648
:101180001BE00820B16F00F073F8B16F014411F853
:10119000011C61B9401EC0B20028F3D10FF2AC00AF
:1011A00040F6981300F070F8DFF8E40905E00097C6
:1011B00040F69C1300F063F80020BDE8FE830000B9
:1011C0003D3E20666C757368206F75747075740091
:1011D000426164207573616765206F66206D62658A
:1011E00064746C735F73736C5F7365745F62696F53
:1011F0002829206F72206D626564746C735F73734D
:101200006C5F7365745F62696F2829003C3D2066DE
:101210006C757368206F7574707574006D65737389
:10122000616765206C656E6774683A2025642C20C0
:101230006F75745F6C6566743A2025640000000069
:1012400073736C2D3E665F73656E64006F757467B3
:101250006F696E67206D65737361676520636F7575
:101260006E74657220776F756C64207772617000A0
:10127000014411F8012C521C01F8012C70474A4618
:101280000221404603F009BA00904A460121404637
:1012900003F003BAF0B5044685B004F194050FF2EB
:1012A00024106F69DFF8806A009040F68D23324683
:1012B00001F041FD2869162821D1E868017869B15B
:1012C000A26B5AB9DFF8680A40F69F2300903246B5
:1012D000012101F031FDDFF85C0A70E03A1F130CC8
:1012E0004370100AEA689070EA68381FD07031B114
:1012F000A36BE9683A462046D3F8983298472968A4
:101300002869087028686169431C2068406FC0F331
:101310004002206902F03CFA00F09AF8206C90B18B
:101320002046FFF7F9FA07000AD00FF2A80001974C
:10133000009040F60833324600F03DFD38463EE06E
:101340006F6900F085F86869296840F61633401D1A
:10135000A86168680278407840EA0220324604902A
:1013600088780390487802900878032101900FF262
:10137000740001F089FA686940F619333246042195
:10138000401D0290286801900FF29400FFF7BDFD08
:101390002046FFF7A7FE05000AD0DFF8940D01955F
:1013A000009040F61E33324600F005FD284606E068
:1013B0000FF28C0040F6223301F0BEFD002005B094
:1013C000F0BD00003D3E2077726974652072656350
:1013D0006F72640073736C5F656E63727970745FB3
:1013E000627566006F7574707574207265636F72D4
:1013F000643A206D736774797065203D2025642CF4
:101400002076657273696F6E203D205B25643A25F6
:10141000645D2C206D73676C656E203D2025640033
:101420006F7574707574207265636F726420736574
:101430006E7420746F206E6574776F726B0000009D
:101440003C3D207772697465207265636F72640039
:101450006968380A087068684770704730B585B0A9
:101460000446A06FDFF8C05804280CD201900FF298
:101470006800009040F606432A46012101F05CFC1A
:10148000DFF8B00C25E0E16E8B784A781B0243EA66
:101490000242CB781A43121DC4F8802040F6114353
:1014A0000392097801900FF2500002912A460090B1
:1014B00000F054F8A06FD4F88010884208D20FF2E0
:1014C000700040F64F4300F091FADFF86C0C00E03A
:1014D000002005B030BD000068616E647368616B08
:1014E00065206D65737361676520746F6F20736825
:1014F0006F72743A2025640068616E647368616B72
:1015000065206D6573736167653A206D73676C65FF
:101510006E203D2025642C2074797065203D2025A7
:10152000642C2068736C656E203D202564000000EB
:10153000544C532068616E647368616B65206672F9
:1015400061676D656E746174696F6E206E6F742073
:10155000737570706F72746564000000032120461B
:1015600003F09BB8416810291CBF836B002B05D08A
:10157000D0F88020C16ED3F898321847704770B504
:10158000044688B00520DFF8A0570290206E019035
:101590000FF21410009040F696532A46042120467C
:1015A000DFF8906B03F0CAF8206E01786167616E16
:1015B000431C0A78497841EA0221A167206805A9FD
:1015C000406FC0F3400206A802F0E5F8A06F40F6B5
:1015D0009F5304900598039006980290606F0190C5
:1015E0000FF2D80001F054F9606F162818BF1528C3
:1015F0000FD0142818BF17280BD00FF2FC0040F6AC
:10160000A75300F0F3F90A220221204600F082FAE3
:1016100044E006982169884204D00FF2F0004FF4AC
:101620005B6309E02068059990F87100884205DA4B
:101630000FF2F00040F6B65300902BE0E36E41F25B
:10164000B532A06F0FF28431D21AA36D9A1882427C
:1016500003D2009140F6BE531CE0E26B42B918B1D0
:1016600041F2893290421BD3009140F6C85311E0F9
:101670009268904203D200914FF45D630AE063697F
:10168000012B0DDB02F5A0528832824208D2009174
:1016900040F6E5532A46012101F04EFB304600E0BA
:1016A000002008B070BD0000696E7075742072650E
:1016B000636F72642068656164657200696E70753D
:1016C00074207265636F72643A206D736774797009
:1016D00065203D2025642C2076657273696F6E202D
:1016E0003D205B25643A25645D2C206D73676C6535
:1016F0006E203D2025640000756E6B6E6F776E2046
:101700007265636F72642074797065006D616A6FD1
:10171000722076657273696F6E206D69736D617486
:10172000636800006D696E6F722076657273696F11
:101730006E206D69736D617463680000F0B50446D6
:101740000FF2800083B001F03FF940F689632A462A
:101750000221204604F1740602F09FFF706918BB55
:10176000204600F061F8070006D00FF268000197EC
:10177000009040F691630DE0204600F03DF90746E9
:1017800017F5CD4FECD047B10FF24800019700900C
:1017900040F69B632A4601F0BEBD306816280BD187
:1017A0002046FFF7DFFE07E00FF2480040F6A66391
:1017B00000F0AAF9002070610FF25C0040F6AA6305
:1017C00001F0CBB83D3E2072656164207265636FA5
:1017D000726400006D626564746C735F73736C5F38
:1017E000726561645F7265636F72645F6C61796575
:1017F000720000003C3D2072657573652070726553
:1018000076696F75736C792072656164206D65739C
:1018100073616765000000003C3D207265616420D3
:101820007265636F72640000FEB50446DFF8F85419
:10183000D4F88010206F31B340B1DFF8F40440F6E3
:10184000D86300F0D3F8DFF8EC04FEBDA06F81424E
:1018500010D2421AE06EA267014404F021FFA06F8B
:1018600040F6F8630290E06E01900FF2E40000F0A1
:10187000B7F801E00020A0670020C4F88000A06F46
:1018800020B10020FEBD0028FBD1A0670521204625
:10189000FFF73FFB06000FF2D40707D0019640F692
:1018A0002373009700F086FA3046FEBD2046FFF70E
:1018B00066FE0028E6D1A06F411D2046FFF729FBF8
:1018C000060003D0019640F64D73EAE7002040F68B
:1018D0004263E067A06F2A460421401D0290206EFB
:1018E00001900FF2A000FFF710FBE06B0028C8D0BA
:1018F0002046FFF763F9060010D00FF2A40001960E
:10190000009040F6586300F055FA16F5E34FCBD13E
:1019100014220221204600F0FDF8C5E7A06F40F632
:101920005D630290E06E01900FF2840000F058F8C1
:10193000A06F41F289318842A3D30FF2900040F6A4
:10194000616300F053F8DFF8EC67ADE7808EFFFFCE
:1019500072656D61696E696E6720636F6E74656E26
:101960007420696E207265636F7264006D626564D5
:10197000746C735F73736C5F66657463685F696EC4
:1019800070757400696E707574207265636F72642F
:101990002066726F6D206E6574776F726B00000049
:1019A00073736C5F646563727970745F62756600EF
:1019B000696E707574207061796C6F616420616606
:1019C000746572206465637279707400626164206A
:1019D0006D657373616765206C656E677468000080
:1019E00000902A460421204602F0A8BE00902A4614
:1019F0000121204602F051BE3EB50446606F162814
:101A000004D12046FFF72AFD00283FD1606F15283A
:101A10003BD1E06EC44D40F6D5732A464178029121
:101A20000078022101900FF2680000F02DFFE06EB7
:101A3000017802290CD1407840F6DD732A46012155
:101A400001900FF2700000F01FFFDFF8A80D3EBDFF
:101A5000012904BF4278002A08D10FF27C0040F629
:101A6000E47300F051F8DFF8900D3EBD012904BF8A
:101A70004078642806D10FF27C0040F6EC7300F049
:101A800043F802E0DFF8740D3EBD00203EBD0000CB
:101A9000676F7420616E20616C657274206D657370
:101AA000736167652C20747970653A205B25643A10
:101AB00025645D006973206120666174616C20613A
:101AC0006C657274206D65737361676520286D7332
:101AD00067202564290000006973206120636C6F12
:101AE0007365206E6F74696679206D6573736167C5
:101AF00065000000697320612053534C7633206EDB
:101B00006F5F63657274000000902A4602212046D0
:101B100002F0C3BDFEB504000D4616461CBF20688A
:101B2000002801D18148FEBD0FF268007E4F009071
:101B300041F21C033A4601F0FEF80FF270000296E3
:101B4000009041F21D0301953A46FFF707FD04F1AD
:101B5000A000152141600221816001680D700068BC
:101B6000467001F0D5FB05000AD0DFF8940C019512
:101B7000009041F226033A4600F01DF92846FEBDCA
:101B80000FF2480041F2290300903A4600F0E7BE08
:101B90008094FFFF3D3E2073656E6420616C65722A
:101BA00074206D65737361676500000073656E6412
:101BB00020616C657274206C6576656C3D257520BE
:101BC0006D6573736167653D257500003C3D20734D
:101BD000656E6420616C657274206D6573736167F6
:101BE000650000002DE9FE430446DFF83C91A06C3F
:101BF00041F26B034A46022106680FF23C1000F0E6
:101C000043FE96F90A000FF24811052818BF06286E
:101C100003D0082818BF0B2803D1009141F27203AA
:101C20000BE0206804F1A00690F87400C0070BD404
:101C3000306948B9009141F27C034A4601F07BF8D3
:101C40006068401C606067E020460727FEF7E4F903
:101C500001900FF21810009041F29F034A460321B1
:101C6000204602F043FF2046FEF7D6F9804613E0F7
:101C70003268290CD1553268290A3A4451703168CA
:101C80002A463944FF1C8D70416830683844EF198A
:101C900002F092F8D8F83081B8F1000F19D008F1AD
:101CA000040041F285310568C91BA942E0D241F226
:101CB000883041F2B3030290E819C01C4A460190F3
:101CC0000FF2B8000090012101F036F8DFF8140E91
:101CD00023E03268F81F010C000A11713168487165
:101CE0003168F81F8871162031687060B7600B206A
:101CF000087001F00AFB060008D000F02DFB41F24D
:101D0000CF034A4600F057F8304606E00FF28C0049
:101D100041F2D30300F053F80020BDE8FE83000039
:101D20000098FFFF808DFFFFD0370108008FFFFF75
:101D30002C3801080094FFFF3D3E207772697465DE
:101D400020636572746966696361746500000000F0
:101D50003C3D20736B697020777269746520636500
:101D60007274696669636174650000006F776E2044
:101D70006365727469666963617465006365727432
:101D80006966696361746520746F6F206C61726746
:101D9000652C202564203E20256400003C3D2077F2
:101DA00072697465206365727469666963617465DC
:101DB000000000002A460121204602F094BC009059
:101DC0004A460221204602F068BC2DE9F04F85B05A
:101DD0000546A86CDFF8A4BD4FF487535A4602218C
:101DE000D0F800A02868406FC0F381090FF24C3092
:101DF000009001F048FA9AF90A00052818BF062851
:101E000003D0082818BF0B280AD10FF2483041F23E
:101E1000E70301F03BFA6868401C6860002084E139
:101E20002846FFF78BFC040006D0DFF8540D019420
:101E3000009041F2081392E068680FF23436401CBB
:101E40006860686F16280AD0009641F2451301F0C9
:101E500018FA0A2200F040FADFF8280D65E1E86E72
:101E6000DFF8248D01780B2903D1D5F880100A29D9
:101E700003D2009641F24E134EE0027932B9427914
:101E8000807940EA0220C01D814203D0009641F2D1
:101E90005E1341E0686BC06D38B106F081F9686B84
:101EA000DFF8AC1D0968C06D8847DFF8A82D4FF436
:101EB0009A71126801209047696BC86570B94FF438
:101EC0009A7041F26F130190DFF88C0D01F0E4F984
:101ED000502200F001FADFF8840D26E106F05CF9EB
:101EE000072000E03846D5F8801088423AD2EB6EE1
:101EF0001A1814781CB1009641F27D130CE0547846
:101F00009278C01C42EA0422802A24BF1718B942E2
:101F100006D2009641F2891301F0B3F9322250E063
:101F20001918686BC06D04F015FF0400DAD0DFF8F3
:101F3000E81D401A06D040F25221401AD2D0AE38E5
:101F400002D003E0502202E02B2200E02A2200F01F
:101F5000C3F90FF234200194009041F2A51301F06F
:101F60008BF9E1E0686B41F2AC135A460321C06D76
:101F700001900FF230200090284602F0B7FD2F6844
:101F800097F87400C00720D4A86801281DD1286BD9
:101F9000C36D23B90FF2202041F2B8130EE0686B35
:101FA0005A68C06D41688A4204D18168986806F019
:101FB00077F950B10FF2282041F2C41301F06CF907
:101FC000312200F089F94046AFE0B9F1000F00F08E
:101FD000A580A86B4FF4A47146580844B96B002E35
:101FE00012BF4268FE6C3A6D686B0391796B029187
:101FF00000F160010191D5F8B41000917B6CC06DC7
:10200000314606F001F8040007D00FF200200194D9
:10201000009041F2EB1301F02FF9686B0221C06DC3
:1020200000F1BC07384606F0A8F9C0B1D7E90001B5
:10203000FDF7E6FF90F90010284601F055FB70B15E
:10204000686B41F2FC135A46016E41F4803101661F
:102050000FF2CC10009001F015F904B9444629683C
:10206000686B496F00F16003C06D81F0010101F000
:102070000102514601F053FB38B10FF2C41041F296
:10208000082301F009F904B94446B9F1010F0DD153
:1020900014F51C5F01D100242DE04445FBD054B35E
:1020A000686B006EC1050FD5312222E0002E08BFFB
:1020B000B9F1020FF3D10FF2AC1041F21C2301F081
:1020C000EBF8DFF8F84CEBE7410748BF2A2210D4C1
:1020D00010F4DC3F18BF2B220BD1C10748BF2D22C3
:1020E00007D4810748BF2C2203D400074CBF3022FD
:1020F0002E2200F0F1F8686B006E30B101900FF203
:102100007410009041F2432304E00FF28C1041F26E
:10211000472300905A46032101F0B5F80FF2A010B2
:1021200041F24C2301F0B2F8204605B0BDE8F08F33
:1021300040380108008EFFFF808FFFFF3D3E20707A
:102140006172736520636572746966696361746541
:10215000000000003C3D20736B6970207061727359
:102160006520636572746966696361746500000067
:102170006261642063657274696669636174652075
:102180006D65737361676500206D626564746C735F
:102190005F783530395F6372745F70617273655F49
:1021A0006465720070656572206365727469666942
:1021B00063617465000000006E6577207365727658
:1021C0006572206365727420647572696E6720722F
:1021D000656E65676F74696174696F6E00000000F9
:1021E0007365727665722063657274206368616ED0
:1021F00067656420647572696E672072656E6567D5
:102200006F74696174696F6E000000007835303951
:102210005F7665726966795F6365727400000000BD
:1022200062616420636572746966696361746520C4
:10223000284543206B657920637572766529000017
:1022400062616420636572746966696361746520A4
:1022500028757361676520657874656E73696F6E44
:1022600073290000676F74206E6F204341206368FC
:1022700061696E00212043657274696669636174E7
:102280006520766572696669636174696F6E206640
:102290006C616773202578004365727469666963B1
:1022A00061746520766572696669636174696F6ED1
:1022B00020666C61677320636C65617200000000CA
:1022C0003C3D207061727365206365727469666954
:1022D0006361746500000000022128461AE47CB5A1
:1022E00004460FF23C0000F06FFB41F25C2300F06B
:1022F00021FD04F1A00014214160012181600068EA
:10230000017001F002F8060004D000F025F841F257
:102310006623CCE00FF2240041F26A2301F06EB88C
:102320003D3E207772697465206368616E67652041
:102330006369706865722073706563003C3D207747
:1023400072697465206368616E676520636970688F
:102350006572207370656300DFF8A4040196009035
:1023600070477CB504460FF2B00000F02DFB41F23F
:10237000732300F0DFFC2046FFF7E0F9060006D0EB
:10238000DFF8FC070196009041F277238FE0616F40
:102390000FF2A00014290BD0009041F27D232A46B1
:1023A000012100F0C9FC00F07DF8DFF8D80776BD08
:1023B000A16F012902BFE16E097801290CD00090BC
:1023C00041F285232A46012100F0B6FC322200F0BA
:1023D0006AF8DFF8F80A76BD0FF2780041F28F2331
:1023E00000F056FAA06C0821E063606BA062E06D1B
:1023F00001F05EFB6169A06E00F0E9FAE0666068DA
:1024000041F2C1232A460221401C60600FF278008D
:10241000009000F0F6BF00003D3E207061727365D1
:10242000206368616E6765206369706865722073F8
:1024300070656300626164206368616E6765206334
:1024400069706865722073706563206D6573736170
:1024500067650000737769746368696E6720746FDD
:10246000206E6577207472616E73666F726D207373
:1024700070656320666F7220696E626F756E64208E
:1024800064617461000000003C3D207061727365FE
:10249000206368616E676520636970686572207388
:1024A000706563000A2202212046FFF733BB2A46EB
:1024B0000121204602F017F9304676BD91F9091046
:1024C000806B07290CBF0FF23D010FF22D01C0F800
:1024D0009812704770B504464FF4A873A06B0D4670
:1024E0001646184402F08BFFA06B324629464FF483
:1024F000E073BDE8704009E0806B4FF4A8731844A6
:1025000002F07DBFD0F838004FF4E073184403F0B8
:1025100056BD2DE9F041A6B000F006F90BA8DFF892
:102520005C8602F099FB0FF27C0041F2C23300F0AE
:1025300053F8A06B4FF4A87101440BA802F095FB6F
:10254000202041F2CE3302900DA801900FF27400CA
:1025500000F0C6F8002F03A90BA80CBF0FF24C1710
:102560000FF2581702F082FF0C20019502902020F4
:1025700000F0BCF800F0C4F841F2DA334246FEF74E
:1025800066F90BA802F06BFB202103A8FDF753FDB1
:102590000FF238104FF49F5300F01EF826B0BDE83C
:1025A000F08100003D3E2063616C63202066696E0F
:1025B000697368656420746C7320736861323536A2
:1025C0000000000066696E69736865642073686165
:1025D00032207374617465000090424602212046E7
:1025E00002F05BB82DE9F041C6B000F09DF810A8EC
:1025F000DFF8888503F0A4F80FF2780041F2F33396
:10260000FFF7EAFFA06B4FF4E071014410A803F05C
:10261000A0F8402041F2FF33029014A801900FF27D
:10262000740000F05DF8002F03A910A80CBF0FF292
:102630007C070FF2880703F004FD0C20019502903F
:10264000302000F053F800F05BF841F20B434246B3
:10265000FEF7FDF810A803F076F8302103A8FDF787
:10266000EAFC0FF2680041F21143FFF7B5FF46B0F4
:10267000BDE8F0813D3E2063616C63202066696E99
:10268000697368656420746C7320736861333834CF
:102690000000000066696E69736865642073686194
:1026A000353132207374617465000000636C6965B4
:1026B0006E742066696E697368656400736572760E
:1026C00065722066696E6973686564003C3D2063CD
:1026D000616C63202066696E697368656400000040
:1026E000009042460421204602F028B8009006F1EE
:1026F0002C00A66B03AB3A463021D6F8A4623047D3
:102700000C20019502900FF2080000907047000025
:1027100063616C632066696E6973686564207265C5
:1027200073756C74000000000446666B0D46174616
:1027300006B9266B7047F8B50446DFF84054A06B25
:1027400041F233432A460321D0F830630FF2B4003C
:1027500000F09AF8A068012803D10220A0600020B0
:10276000E060206BDFF8E87420B100F08CFE206B95
:1027700039688847616B0020216360632068426A82
:1027800013001CBF8B68002B09D046B9806A9047A4
:1027900028B10FF2840041F25643FFF727F90FF2F8
:1027A000940041F2184300F073F8A06B00F048FE6B
:1027B000A06B396888470020A063606C20B100F0EE
:1027C00025FE606C39688847A06C41F22C43606438
:1027D0000020A0640FF27C0000F05AF8606841F21B
:1027E0006A432A460321401C60600FF2880000F013
:1027F0004BF8F1BD8088FFFF8087FFFF8099FFFFC6
:102800005C3801083D3E2068616E647368616B65E9
:102810002077726170757000636163686520646918
:1028200064206E6F742073746F72652073657373A8
:10283000696F6E003D3E2068616E647368616B6510
:10284000207772617075703A2066696E616C2066DF
:10285000726565003C3D2068616E647368616B65FC
:10286000207772617075703A2066696E616C2066BF
:10287000726565003C3D2068616E647368616B65DC
:1028800020777261707570000090204601F005BFDE
:1028900000902A460321204601F0FFBEF0B5044611
:1028A0000FF2C80083B000F08FF841F271432A465E
:1028B0000221204604F1900601F0EFFE6169F06804
:1028C00000F085F830612068A36B90F8740000F088
:1028D00001023069D3F8A032011D20469847606993
:1028E000002830690CBF24270C2737633A46011DA6
:1028F00004F1C40001F060FA381D3169B06116209E
:10290000706114200870A06BD0F8300320B100F083
:1029100067F804D40F2001E06068401C60600FF28B
:10292000600041F2A743FFF7B3FF3068082101F0D0
:10293000BFF8A06C2064606BE06200F0E9FC060068
:1029400007D0FFF709FD41F2DA43FFF733FA3046CB
:10295000FEBD0FF2600041F2DE4300902A460221E4
:10296000204601F09AFE0020FEBD00003D3E20778B
:10297000726974652066696E697368656400000039
:10298000737769746368696E6720746F206E65770A
:10299000207472616E73666F726D20737065632050
:1029A000666F72206F7574626F756E6420646174F7
:1029B000610000003C3D2077726974652066696E95
:1029C00069736865640000006C4D009070470229CF
:1029D00005DBA16CCA680969104449420844704784
:1029E000206890F87400C0077047F0B504460FF2F5
:1029F000F80085B0FFF7E8FF41F2EF4300F09AF9E5
:102A00002068A36B02A990F87400D3F8A03200F0FC
:102A1000010080F00102204698472046FEF78EFE16
:102A2000060007D056480196009041F2F543FFF7A3
:102A3000C1F937E0616F0FF2C40016290AD0009087
:102A400041F2FB432A46012100F076F9FFF72AFD07
:102A50004C4844E0E16EDFF8586A0A78142A04BF53
:102A6000D4F88020102A03D0009041F20C5312E0D9
:102A7000091D002200230DF1080CCF5C1CF803C0D7
:102A80005B1C8CEA07073A430C2BF4D3D2B25AB141
:102A9000009041F215532A46012100F04DF93222EF
:102AA000FFF701FD30461AE00C2004F1D001C4F814
:102AB000C00002A84CC84CC1A06BD0F8300320B1B4
:102AC000FFF78EFF04D40A2001E06068401C6060BC
:102AD0000FF2400041F23353FFF716F8002005B023
:102AE000F0BD0000008BFFFF3D3E207061727365FA
:102AF0002066696E69736865640000006261642025
:102B000066696E6973686564206D65737361676576
:102B1000000000003C3D2070617273652066696EA4
:102B2000697368656400000038B504464FF452715B
:102B300005F03CFD4FF4A8702518284602F08CF8EB
:102B40000021284602F094F84FF4E070251828463A
:102B500002F0F6FD0121284602F0FEFDDFF8C80A6A
:102B60000021C4F89802204600F08EFD201D05F0DB
:102B700059FD0320C4F8400131BD0000D0370108E1
:102B8000783801080089FFFF0086FFFF00F0F6BCDF
:102B900038B50446A06C08B100F038FC606B08B191
:102BA00000F071FCA06B08B100F04AFCA06C294D4C
:102BB00020B92A68C02101209047A064606B20B929
:102BC0002A687821012090476063A06B28B92A68A1
:102BD0004FF4527101209047A063A06B00281CBFE6
:102BE000A06C002801D0606BA8B90FF2740041F20C
:102BF0009A5300F03DF9164DA06B29688847A06CE8
:102C000029688847606B296888470020A063A06412
:102C10006063124832BDFFF7B9FFA56CC02128469A
:102C200005F0C4FC05F1500001F02AF905F1880017
:102C300001F026F905F1380000F06BFF05F14400C2
:102C400000F067FFA06BFFF76FFF002032BD0000B0
:102C5000F41A0320F01A03201C2D01080081FFFF45
:102C6000616C6C6F632829206F662073736C20730E
:102C700075622D636F6E7465787473206661696C1C
:102C8000656400007CB5DFF8A459044621602A6819
:102C900041F2B536314601209047A06538B12A6827
:102CA00031460120904704F18C010860A0B90FF271
:102CB0006C000196009041F2F353DFF830230121BC
:102CC00000F03AF8DFF86819A06D0968884700201D
:102CD000A065DFF8600976BD486008680830886044
:102CE00008680B30C86008680D30086108680D304E
:102CF0004861A06DE065A06D08302066A06D0B30C6
:102D00006066A06D0D30A066A06D0D30E0662046B7
:102D1000BDE876403CE7000080D7FFFF616C6C6F38
:102D20006328256420627974657329206661696C63
:102D3000656400002A460221204601F0AEBC426FC5
:102D400061F3000242677047426F61F341024267DC
:102D50007047426F61F38302426770474163826349
:102D600070478161C2617047016142617047416291
:102D70008261C361009901627047016670474164D6
:102D8000704770B51646DFF8A428126804460D4651
:102D90000C210120904700B938E005600021466011
:102DA0008160216811B9206004E011468A68002A18
:102DB000FBD18860002070BD000000008089FFFF0B
:102DC0004830DEE7C1640265704770B50D00044607
:102DD00007D0284600F0C8FF0646711C01D0FF2E20
:102DE00002D9DFF8BC0970BDDFF840280120126865
:102DF0009047C4F8B40000B908E03246294600F014
:102E0000DBFFD4F8B4100020885570BDDFF824082B
:102E100070BD016B09B1086E7047406B08B1006E60
:102E2000704700F06DBC38B50446256C0DB905201F
:102E300032BD05F15000FDF7E5F8801E05D0001FFA
:102E400002280CD8A868401D32BD15F150006969F0
:102E50001DBF286D0028406900204018F3E70FF6D9
:102E6000CC1041F6461300F003F8DFF83C0932BD00
:102E700000900FF65C120121204601F00EBC0168A3
:102E8000C06ADFF82029496FC1F3821152F821107E
:102E900030B190F8700052F82000884238BF0146E7
:102EA00008467047DFF8F80870470100DFF8FC08B3
:102EB0001CBF0A68002A00D1F4E792F87420D207F8
:102EC0005CBF084608F012B8704700000082FFFFA0
:102ED00070B504460025002C82B01CBF2068002875
:102EE00000D17FE00FF230000FF6E406009041F6CB
:102EF0009D133246FFF71FFF6068102804D020465C
:102F0000FFF7D3FF0500F7D00FF21C0041F6A7131F
:102F100000F012F8284676BD3D3E2068616E64736D
:102F200068616B65000000003C3D2068616E647361
:102F300068616B6500000000009032460221204667
:102F400001F0ABBB7CB504460FF64410FFF73CFD27
:102F500041F6D413FFF7EEFE2046FFF719FEB0B995
:102F600060600120A0602046FFF7B2FF060007D096
:102F70000FF62C100196009041F6EB13FFF797BA6D
:102F80000FF6341041F6EF13FEF7BEFD002076BDBC
:102F90007CB504001CBF2068002807D0A0680FF68D
:102FA000300501280FD06068102800D01AE02046B4
:102FB000FFF7C8FF060013D00FF60C100196009023
:102FC00041F61C230AE02046FFF782FF060007D0E7
:102FD0000FF6CC000196009041F62423FEF7EAFE9E
:102FE000304676BDDFF8B80776BD0000D03701085F
:102FF00070B582B004466068102814D1A068032818
:103000001FBF2568686FC0F3802000280BD0E06DDB
:1030100000F015F80646D4F8900000F010F8012EE4
:10302000B8BF012801DA002076BD0FF6B40041F6E2
:103030004723FFF71DFF2046BDE87640A8E708229A
:1030400005F1680105F02CB92DE9F24F050082B0B9
:1030500091461ABF28680028DFF844075ED00FF6B3
:10306000AC000FF26C7B009041F657235A460221C8
:103070002846DFF83C8701F010FB2846FFF7B8FF31
:103080000746474518BF002F06D00FF68800019766
:10309000009041F679239DE0686810280ED02846FC
:1030A000FFF716FF0746474518BF002F06D00FF25F
:1030B000F0700197009041F684238BE0286F05F1B2
:1030C0008807002840F0B980696D080009D0E86CD5
:1030D000884710F1010F04D12868016E2846FCF7DB
:1030E000AFFF28460FF29074FEF728FB0600DFF8CA
:1030F000C4A605D0564510D0019641F6BA2311E07A
:10310000A86F002804BF686F17280FD12846FEF764
:1031100015FB06000AD0564501D10020AAE0019611
:1031200041F6C923009400F0A7F87BE0686FDFF850
:103130008846DFF88866162850D10FF2F47041F601
:10314000D12300F0A9F82868416FCA070CD4EA6EB1
:103150001278002A04BFD5F88020042A04D00FF288
:10316000EC7041F6DE235BE0C1F3802139B1796B6D
:10317000002902BF406FC0F3011000281CD10FF2DC
:10318000F47041F6033300905A46032100F07BF8B7
:103190006869012807DB642201212846FEF7BAFC92
:1031A000002835D066E00FF2846041F61F3300F04E
:1031B00073F8DFF8F4055DE02846FFF7C3FE074625
:1031C000474518BF002F23D00FF2FC6001970090F5
:1031D00041F6353300F050F838464BE0A968032932
:1031E0000ED129684A6E002A0AD4EA68521CEA60A5
:1031F000496E914204DA0FF2A47041F643330FE0B6
:10320000152807D10FF2C87041F64D3300F03EF893
:1032100020462FE0172807D00FF2DC7041F6533319
:1032200000F03AF8304625E0E86E28676868102814
:1032300003D100212846FCF703FFA86F296F8145C1
:1032400088BF814602984A4600F0B6FDA86F41F655
:1032500082335A46B0EB0900A86707BF00213960E6
:10326000286F484428670FF2B0700090022100F0E8
:103270000AF84846BDE8FE8F5A460121284601F06B
:1032800032BA5A460121284601F007BA00905A4640
:103290000221284601F001BA00905A460121284631
:1032A00001F0FBB9F0B583B004460F461646FFF7B0
:1032B000E6FD0546B54204F1A000C16888BF354669
:1032C0000FF20C5659B12046FDF70CFF07001AD03B
:1032D0000FF26C500197009041F6A63311E0856023
:1032E0001721416000682A46394600F065FD00F06C
:1032F0000FF8070007D00FF264500197009041F6D5
:10330000B233324607E02846FEBD6068401C60606C
:103310002046FDF7BFBFFEF74EFD3846FEBD2DE946
:10332000FC4104460FF2F8600E46009090460FF202
:10333000A04541F6E733FFF7FDFC002C1ABF2068DB
:103340000028DFF85C042BD02046FFF751FE070071
:1033500006D001970FF2BC50009041F6EF330DE01C
:10336000606810280ED02046FFF7B2FD070009D094
:1033700001970FF22C50009041F6F833FEF71AFD3A
:1033800038460DE0424631462046FFF78BFF0646A1
:103390000FF29860009041F60343FFF7CBFC3046F4
:1033A000BDE8F6817CB504001CBF2068002800D170
:1033B00018E60FF28460FFF707FB41F61243FFF7B0
:1033C000B9FCD4F8AC0020B12046BDE87640FDF74A
:1033D00089BE606810280DD100220121FFF764F832
:1033E000060007D00FF268600196009041F61D4379
:1033F000FFF75DB80FF2786041F6224300902A464D
:103400000221204601F049F9002076BD10B50400E4
:1034100015D004F1500000F036FD04F1880000F0F2
:1034200032FD04F1380000F079FB04F1440000F0B3
:1034300075FB2046C021BDE81040FCF7FCBD10BD67
:1034400070B504001ED04FF4A870204401F007FCB2
:103450004FF4E070204402F076F9201D744E05F020
:10346000E5F84FF49C702518286831688847E868AB
:1034700020B13168856888472800FAD120464FF48A
:103480005271E6E070BD38B5040010D0E06D684DB3
:1034900020B104F085FEE06D29688847606E2968D8
:1034A000884720467821BDE83440FCF7C4BD31BDD3
:1034B0008081FFFF2DE9F041040082B05BD00FF264
:1034C000C850FFF781FA41F6B0432A460221204650
:1034D00004F1300601F0E1F8F06DDFF8E47241F23A
:1034E000B53828B14146FCF7A6FDF06D396888472C
:1034F000B06A28B14146FCF79EFDB06A396888473A
:10350000706920B1FFF782FF706939688847B06839
:1035100080B1FFF795FFB069FFF778FF7068FFF79C
:10352000B2FFB06839688847B06939688847706801
:1035300039688847306820B1FFF7A5FF30683968DF
:103540008847D4F8B46056B1304600F00DFC01460F
:103550003046FCF770FDD4F8B400396888470FF2A4
:10356000305041F6F143FEF7CFFA2046DC21BDE8AA
:10357000FC41FCF760BDBDE8F38100BF782105F098
:1035800015B8F8B504460F4616461D46FFF7D7FB9B
:1035900031462046FFF7D8FB04F170063FB970684A
:1035A00020F00C0040F4805040F00800706070681B
:1035B0000221844F40F4007070601020606604F1B6
:1035C000680004F0F3FFFF22062104F16A0007F00F
:1035D000CDFF022D12D10320B070F07030707070EA
:1035E00007F11400E060A0606060206076486064CD
:1035F00007F12000606507F12C0011E00320B07096
:103600000120F07003203070707000F0B3FDE060B6
:10361000A060606020606D486064676507F0DAFF55
:10362000A0650020F2BD0000D5240108F01A032097
:10363000F41A03200081FFFF70B50446604DA06CB2
:10364000002803E02968866888473000FAD12046C0
:103650007821BDE87040FCF7EEBC10B504460121AE
:1036600004F08BFE08B1012010BD0421204604F0B7
:1036700084FE00B1032010BD012804D0032801D12D
:1036800004207047002070470170417070470000AF
:10369000401E052810D8DFE800F0030507090B0DD0
:1036A00003207047042070470520704706207047AC
:1036B000072070470820704700207047C01E05286B
:1036C00010D8DFE800F0030507090B0D0120704753
:1036D0000220704703207047042070470520704780
:1036E00006207047002070470068806D40B190F957
:1036F00000202AB110F9012B8A42F8D1002070472E
:103700004FF0FF3070470068406D38B102682AB151
:1037100050F8042B8A42F9D100207047F0E72DE9D8
:10372000F0410446174600260020012F1D460FD108
:1037300091F90A10491E09D0491E022908D9491FCA
:1037400004D0891E012998BF082002E0202000E053
:103750008020014620464FF0FF3804F0EDF820B1FC
:103760002868464640F400602860012F20460CBFC0
:103770000FF224310FF22C31082204F0F5F820B1B9
:103780002868464640F4805028603046BDE8F08105
:103790001870597070471A7802605878086070473E
:1037A000008FFFFF901A03200094FFFF808FFFFF20
:1037B0000095FFFF808DFFFF0097FFFF0089FFFF4F
:1037C000F41A0320441A0320A47B04089082010801
:1037D000433A5C53544D33324375626545787061AA
:1037E0006E73696F6E5F436C6F75645F4157535FB3
:1037F00056312E322E305C4D6964646C657761728F
:1038000065735C54686972645F50617274795C6D51
:10381000626564544C535C6C6962726172795C736A
:10382000736C5F746C732E630000000073686F75B7
:103830006C64206E657665722068617070656E00DC
:103840006D626564746C735F73736C5F666C7573C3
:10385000685F6F7574707574000000006D62656458
:10386000746C735F73736C5F77726974655F726594
:10387000636F7264000000006D626564746C735F56
:1038800073736C5F726561645F7265636F7264000D
:103890003D3E2072656E65676F74696174650000F6
:1038A0006D626564746C735F73736C5F68616E6482
:1038B0007368616B650000003C3D2072656E656752
:1038C0006F7469617465000073736C5F7374617207
:1038D000745F72656E65676F74696174696F6E009D
:1038E0007265636F726420636F756E746572206CAD
:1038F000696D697420726561636865643A207265F8
:103900006E65676F74696174650000003D3E2072EA
:103910006561640073736C5F636865636B5F637498
:10392000725F72656E65676F74696174650000002F
:1039300072656365697665642068616E6473686149
:103940006B65206D657373616765000068616E6407
:103950007368616B652072656365697665642028AC
:103960006E6F742048656C6C6F5265717565737409
:10397000290000007265667573696E672072656E56
:1039800065676F74696174696F6E2C2073656E640E
:10399000696E6720616C65727400000072656E6507
:1039A000676F74696174696F6E2072657175657394
:1039B0007465642C20627574206E6F7420686F6E5D
:1039C0006F72656420627920636C69656E740000B3
:1039D00069676E6F72696E67206E6F6E2D666174B7
:1039E000616C206E6F6E2D636C6F737572652061F4
:1039F0006C65727400000000626164206170706C1C
:103A000069636174696F6E2064617461206D6573B0
:103A100073616765000000003C3D207265616400D1
:103A20003D3E207772697465000000003C3D2077C0
:103A300072697465000000003D3E2077726974650C
:103A400020636C6F7365206E6F7469667900000087
:103A50006D626564746C735F73736C5F73656E64C1
:103A60005F616C6572745F6D65737361676500009B
:103A70003C3D20777269746520636C6F7365206EBE
:103A80006F746966790000003D3E206672656500CE
:103A90003C3D2066726565002B06010505070301A4
:103AA000000000002B0601050507030200000000CE
:103AB000002207F05FBD03681AB95A1E026008466B
:103AC0007047197811B94FF0FF307047591C0160E9
:103AD00018787047002918BFFFF7EABF7047000049
:103AE000C01E062813D8DFE800F004080A0C0E10E8
:103AF00006008E4870478E4870478E4870478E4843
:103B000070478E4870478E4870478E487047002037
:103B100070470021002200230EC0704710B504003A
:103B20001CBF2168002913D0606808B1496A884722
:103B3000A06840B12168C9684900FFF7CBFF8249FE
:103B4000A0680968884720460C21BDE81040C1E7FD
:103B500010BDF8B504460D00164618BF002C01D163
:103B60007A48F2BD286A7A4F8047606050B15EB1F2
:103B7000784AE968126802209047A06020B960681E
:103B8000696A88473846F2BD25600020F2BD0028EA
:103B900080B51CBF0168002900D104E040680969B4
:103BA0008847002002BD694802BD002880B51CBFBF
:103BB0000368002B00D1F6E740685B699847002056
:103BC00002BD002880B51CBF0268002A00D1EAE7C8
:103BD000406892699047002002BD10B50400084675
:103BE00011461A4600D15EE0E3699847002010BDF7
:103BF0002DE9F041040090B00D4690461CBF2168AD
:103C0000002901D0A06808B950483BE0C868404589
:103C100010D200F088F823686068424629466D4655
:103C20005B69984722686068694692699047206896
:103C3000D0F808802068A7683622C16838467E1808
:103C400007F094FC20685C22C168304607F08EFCC7
:103C5000002008E0395C2A5C51403954315C2A5C10
:103C600051403154401C4045F4D340216846FFF791
:103C700031FF00F057F8236860683946DA685B69FD
:103C80009847002010B0BDE8F081002810B51CBF97
:103C90000368002B01D0846804B904E040685B69C4
:103CA0009847002010BD294810BD70B5040090B0A1
:103CB0000D461CBF2268002A01D0A06808B923481D
:103CC00019E0D1689269461860686946904700F02B
:103CD00029F8236860683146DA685B699847236889
:103CE000606869469A685B699847226860682946F7
:103CF00092699047002010B070BD000038B50400F4
:103D00001CBF2168002901D0A5680DB90F4832BD3C
:103D100000F009F8236860682946DA685B6998470B
:103D2000002032BD2168606809690847AC85040835
:103D3000DC8504080C8604083C8604086C860408AC
:103D40009C860408CC860408F41A032000AFFFFF09
:103D500080AEFFFFF01A032008B18068C0B2704740
:103D600000B140687047000000F10103810704D0F2
:103D700010F8011B89B18107FAD10268B2F1013153
:103D8000914311F0803F04BF50F8042FF6E710F87C
:103D9000011B11B110F8011BFBE7C01A70478268C4
:103DA000521C8260426832B10268531C0360117079
:103DB0004168491E4160704762B38B0708D0521EAC
:103DC00011F8013B00F8013B00F024808B07F6D18D
:103DD000830740F0208000BF103A07D330B4B1E829
:103DE0003810103AA0E83810F9D230BC530724BF7D
:103DF000B1E80810A0E8081044BF51F8043B40F8AF
:103E0000043BD20724BF31F8022B20F8022B44BF19
:103E10000B7803707047083A07D3B1E80810083AE6
:103E200040F8043B40F804CBF7D25307E4E70268BC
:103E3000531C036011707047DFF80C2300E0083258
:103E4000516829B192F900308342F8D10846704791
:103E50000020704730B5DFF8F03200E008335C68CE
:103E600064B1A56995F90050854201BF65688D422E
:103E700094F901409442F1D1586830BD002030BD22
:103E8000382104F093BB10B504000BD0606B18B15F
:103E9000216889694969884720463821BDE8104072
:103EA000FFF706BE10BD38B504460D0018BF002C44
:103EB00000D14EE0382104F079FBA8690069804701
:103EC000606310B9DFF8840232BD2560002032BD86
:103ED00070B50400DFF878021CBF2568002D1DD0E6
:103EE0002E7CB60702D46E68964217D1012B626011
:103EF00023721EBF95F90120032A052A06D1AB695A
:103F00006268606B9B68BDE87040184733B9AB6965
:103F10006268606BDB68BDE87040184770BD38B5FB
:103F200004001CBF2068002813D091B1112A01D3CE
:103F3000884832BD037CDB0708D515462A4604F1C4
:103F40002000FFF739FF2563002032BDC568AA4273
:103F5000F4D27F4832BD00281CBF0168002900D17F
:103F60005AE00021C16100207047F8B504000846FE
:103F700011461CBF2568002D2DD0069A5AB3002685
:103F8000166095F901706E69012F0CD1B14201D014
:103F90007148F2BD1160024694F90810606BAC697B
:103FA0006468A047F2BD062F07D111600246606B1E
:103FB00001B0BDE8F04009F068BC0EB96748F2BD39
:103FC00098420AD1E069002802BFB1FBF6F006FB77
:103FD0001010002801D05E48F2BD5E48F2BD0028F6
:103FE0001CBF0168002900D002B915E0002313604E
:103FF00091F90110032918BF052903D0062918BF1C
:10400000072901D100207047012903D1C06910B1EF
:10401000514870474F4870474D487047F0B583B0DE
:1040200005461E46FFF77BFFC8B92846FFF793FFFA
:10403000A8B9099F089A0A9C3146009428463B4635
:10404000FFF793FF58B9206801AA39182846FFF7EF
:10405000C6FF20B920680199081820600020FEBD25
:104060002DE9F04387B004680E9D0F9EDDF8408077
:10407000119F94F90190DDF848C0DDF84CE0149CE4
:10408000B9F1060F10D1CCF80080CDF818E00594F6
:1040900004970396029501930B460092406B4246AB
:1040A000012109F0ECFC10E0B9F1080F0CD1CCF8BB
:1040B00000800594CDF810E003970296019500F07A
:1040C00052F809F0D6FE00E0224807B0BDE8F083C0
:1040D0002DE9F04786B00468DFF884900E9E0F9FAC
:1040E000DDF8408094F901A0DDF844C0DDF848E037
:1040F000139C149DBAF1060F0DD1CEF80080CDF8B7
:1041000014C004970395029400F02CF809F0D4FC35
:1041100010F1120F0FE0BAF1080F0FD1CEF80080A6
:1041200005950494CDF80CC0029700F01BF809F037
:10413000B6FE10F10F0F02D1484600E0054806B068
:10414000BDE8F08700000000247E0408809EFFFF89
:10415000009FFFFF809FFFFF809DFFFF809CFFFF70
:10416000009DFFFF019600931346406B0A464146AF
:104170007047000070B50F4C2068C0B90FF294056D
:10418000261D0AE000F018F800281FBF90F908006B
:104190002A28286846F8040B2D1D286818B104F158
:1041A0003C018E42EED30020306001202060201DB3
:1041B00070BD0000380D05200FF2E42100E0203131
:1041C0000A681AB18242FAD1084670470020704747
:1041D00080B5FFF7F1FF10B90FF2300002BD406863
:1041E00002BD90F90A00401E022807D9C01E07D060
:1041F000C01E03D0801E012804D905E001207047AD
:10420000042070470220704700207047756E6B6E67
:104210006F776E002CC0000030C000009F000000CF
:10422000ADC000009FC0000024C0000028C00000F6
:104230006B0000000AC0000014C00000390000003C
:10424000AFC00000A3C0000087C000008BC000000A
:104250007DC0000073C0000077C00000C4000000F3
:10426000880000002BC000002FC000009E0000004E
:10427000ACC000009EC0000023C0000027C00000AA
:104280006700000009C0000013C0000033000000F8
:10429000AEC00000A2C0000086C000008AC00000BE
:1042A0007CC0000072C0000076C00000BE000000AC
:1042B0004500000008C0000012C000001600000009
:1042C000AB000000A7C0000038C00000B300000031
:1042D00036C000009100000091C000009BC00000AB
:1042E00097C00000ABC00000AA000000A6C00000FC
:1042F00037C00000B200000035C000009000000090
:1043000090C0000096C000009AC00000AAC0000043
:1043100034C000008F000000FFC000009D000000BE
:104320009DC000003D0000003500000032C00000CC
:104330002AC000000FC000002EC0000026C00000F0
:1043400005C00000A1C000007BC00000C00000004C
:10435000840000008DC0000079C0000089C000000A
:1043600075C000009C0000009CC000003C000000E4
:104370002F00000031C0000029C000000EC0000066
:104380002DC0000025C0000004C00000A0C0000037
:104390007AC00000BA000000410000008CC000009C
:1043A00078C0000088C0000074C000000A0000004F
:1043B0000DC0000003C00000AD000000B700000009
:1043C0009500000093C0000099C00000AC00000000
:1043D000B60000009400000092C0000098C00000E9
:1043E00093000000A9000000A5C00000AF0000007D
:1043F0008D0000008FC0000095C00000A9C0000023
:10440000A8000000A4C00000AE0000008C00000066
:104410008EC0000094C00000A8C000008B00000007
:1044200007C0000011C0000033C000008E00000073
:1044300005000000040000000CC0000002C00000E5
:10444000920000008A000000150000000900000032
:1044500006C0000010C000003BC000003AC00000D1
:1044600039C00000B5000000B40000002D000000BD
:104470003B00000002000000010000000BC0000033
:1044800001C00000B9000000B80000002E000000CC
:10449000B1000000B00000002C000000000000008F
:1044A0002BC00000908304080E06040003000000E7
:1044B00003000000030000000300000000000000F3
:1044C0002CC00000B883040810070400030000009B
:1044D00003000000030000000300000000000000D3
:1044E000ADC00000E08304082D06040003000000B6
:1044F00003000000030000000300000000000000B3
:10450000AFC00000048404082D060400030000006E
:104510000300000003000000030000000200000090
:10452000ACC00000288404082B060400030000002F
:104530000300000003000000030000000000000072
:10454000AEC000004C8404082B06040003000000E9
:104550000300000003000000030000000200000050
:104560002FC00000708404080E0603000300000042
:104570000300000003000000030000000000000032
:1045800030C00000988404081007030003000000F6
:104590000300000003000000030000000000000012
:1045A0009D000000C0840408100701000300000003
:1045B00003000000030000000300000000000000F2
:1045C0009C000000E08404080E06010003000000C7
:1045D00003000000030000000300000000000000D2
:1045E0009DC00000008504082D06010003000000A6
:1045F00003000000030000000300000000000000B2
:10460000A1C000001C8504082D0601000300000065
:10461000030000000300000003000000020000008F
:104620009CC00000388504082B0601000300000030
:104630000300000003000000030000000000000071
:10464000A0C00000548504082B06010003000000F0
:10465000030000000300000003000000020000004F
:104660000000000070850408000000000000000049
:10467000000000000000000000000000000000003A
:10468000DFF800150860704710B582B00468049820
:10469000009060692469A04713BDF0B50400ADF532
:1046A000017D0D4616461F461CBF2068002817D006
:1046B0000069A8B100F0FCF812DB869A87AB4FF4D2
:1046C000007101A809F01AFCB0F5FF7F05D80A2196
:1046D00001AA115400211044417001A800F028F8EB
:1046E0000DF5017DF0BDF0B5ADF5037D0446206804
:1046F0000D4616461F4600281CBF0069002814D02E
:1047000000F0D6F811DB899810F5D24F0DD0414258
:10471000889B01910FF27C4200904FF4007102A837
:1047200009F00AFC02A800F003F80DF5037DF0BDC6
:104730003B460090324629462046A5E72DE9F04F3A
:10474000ADF5077D044620680025884691469B46C6
:1047500000281CBF0069002867D0DFF82804006823
:10476000404562DB929F0FF248420097909B4FF4C6
:10477000007106A800260FF2544A09F0DDFB00F094
:1047800058F8112101A803F011FF04E001A906F077
:104790000F028854761CBE4238BFB6F5805F30D217
:1047A00016F00F0F19D176B106A801AB5246C5F528
:1047B00000714019002509F0BFFB00F03AF8112103
:1047C00001A803F0F3FE06A833460FF20842C5F530
:1047D0000071401909F0B0FB451991980FF2FC32B5
:1047E000C5F50071835D06A8401909F0A5FB4519C0
:1047F0009198805DA0F120015F2934BF40B22E2046
:10480000C4E72FB911E074A209F096FB4519761C94
:1048100006A8401916F00F0FC5F50071F3D101ABD2
:10482000524609F089FB00F004F80DF5077DBDE85C
:10483000F08F06A85B4600904A464146204623E793
:104840002DE9F043ADF5037D044620680D46904602
:10485000994600281CBF0069002820D000F028F8E5
:104860001DDB8A9E0FF27C324FF4007102A83346A2
:1048700009F062FB8B9F02A801974B4600F013F8EA
:1048800033460FF268324FF4007102A809F054FB6E
:1048900007F10C004B46019002A800F004F80DF55A
:1048A000037DBDE8F083009042462946204603E0A0
:1048B000B4480068A84270472DE9FD4FADF5027D70
:1048C0000068012688464FF0000900281FBF0069D4
:1048D00000288F9D002D6DD0AA480068404569DBF7
:1048E0006868441E00E0641E24B1A86850F82400E3
:1048F0000028F8D01F20A96851F82410C140C9072A
:1049000001D4401EF7D500EB44108E9B0FF2E42239
:104910004FF400714F46401C009001A809F00CFBB9
:1049200000F05CF8641C35E036B1A86800EB840048
:1049300050F8040C00282CD04FF0030A4FEACA0BA1
:1049400026B1A86800F03AF800061FD0F81000263B
:1049500007EB10700011B7EB001008D1012F06DB38
:1049600000F033F8B14609F0E7FA00F037F8A8682C
:104970000FF26822C9F500717F1C00F01FF800F0EB
:10498000FF0301A8484409F0D7FA8144BAF1010AAB
:10499000D4D5641EC8D13EB101A8C9F5007176A274
:1049A000484409F0C9FA814400F00FF809F0C4FA4C
:1049B00000F014F80DF5057DBDE8F08F00EB8400E4
:1049C00050F8040C20FA0BF0704701A8C9F50071EB
:1049D0006AA24844704700002020200001A8849B60
:1049E0000090839A829841464EE62DE9F04F8FB0B1
:1049F0000446884691469B46242106A803F0D6FD2E
:104A0000199806A903F094FD38B10FF208205B460F
:104A100000F03AF8FFF738FE2FE000250FF21026DD
:104A20000FF2042A0C2106A86943471897F90000E1
:104A300018B37868189B00905246102102A809F01C
:104A40007BFA00208DF817003856012804D100F0B9
:104A500017F8FFF731FF0DE0022804D100F010F83D
:104A6000FFF7EEFE06E000965B464A4641462046CA
:104A7000FFF70AFE6D1C032DD4D30FB0BDE8F08FF5
:104A8000B8685B46019002A800904A46414620461D
:104A900070472DE9F043ADF5017D0D468899044638
:104AA000904699460E4619E00A2816D1701A471CFE
:104AB000B7F5007F01A828BF40F2FF173A46FFF77D
:104AC0007BF9002001A9C85501A800904B46424639
:104AD00029462046FFF7D8FD711C761C96F9000088
:104AE0000200E1D10DF5017DBDE8F0832DE9F0472D
:104AF000ADF5C16D0446206800260D4690469946E6
:104B000000281CBF0069002832D0DDF82C767FB366
:104B1000FFF7CEFE2CDBDDF828A6761C5346009668
:104B20000FF220124FF400710DF5816009F004FAC4
:104B30000DF5816000F028F8FFF7A6FD3B4640F236
:104B4000FF310FA202A802F05BFB02A800F01CF8E4
:104B5000FFF79FFF07F1BC004B4601900FF2F000FA
:104B600000F013F8FFF741FFD7F83071002FD4D1D0
:104B70000DF5C16DBDE8F087203030000A0000005F
:104B800000000000780F05204B4600904246294661
:104B900020467047257328292072657475726E65EA
:104BA0006420256420282D307825303478290A00A7
:104BB00064756D70696E6720272573272028257519
:104BC000206279746573290A000000002020257393
:104BD0000A000000253034783A20000020253032C9
:104BE00078000000257328582900000025732859F3
:104BF0002900000076616C7565206F66202725739B
:104C000027202825642062697473292069733A0A71
:104C100000000000696E76616C696420504B20636F
:104C20006F6E746578740A002573257300000000A8
:104C300073686F756C64206E6F7420686170706546
:104C40006E0A00002573202325643A0A0000000044
:104C50006372742D3E0000006C2103F0A7BC002895
:104C60001CBF6C21FEF724BF70476C22FFF7B4B85D
:104C7000002202604260B9B9DFF844298260DFF89F
:104C80004429C260DFF840290261DFF8402942610F
:104C9000DFF83C298261DFF83C29C261DFF838295E
:104CA0000262DFF8382916E0DFF834298260DFF885
:104CB0003429C260DFF830290261DFF8302942610F
:104CC000DFF82C298261DFF82C29C261DFF828295E
:104CD0000262DFF828294262816670472DE9F14FB0
:104CE000CEB0002206A84E9B03EB82039B6840F8DF
:104CF0002230521C082AF6D3002201EB82035D7891
:104D00001C782D0445EA04649D78DB7844EA052488
:104D100023430EAC44F82230521C102AEDD300215C
:104D20000469D0F81C90D0F81480D0F818E00FF681
:104D3000D0030EAA4FEAF42A03EB81038AEAB415E2
:104D4000D0F808C002EB8102D0F80CA085EA7465A7
:104D5000A9448EEA0805254085EA0E05A9441D6888
:104D600016684D44D0F8049006EB050B069EDA4415
:104D700035464FEA753585EAB606069D86EAB5578B
:104D8000069EC0F80CA009EA050549EA060606EAEF
:104D90000C0635433D44AB444FEAFA2585EABA1583
:104DA000C0F81CB0069F069E85EA7A65AE4488EA84
:104DB000040505EA0A0585EA0805AE445D6847EA88
:104DC0000B0706EA0B0607EA09073E43AE4455689F
:104DD000AE444FEA7B3585EABB05F444C0F808C011
:104DE00085EABB557519AE444FEAFC25C0F818E0BA
:104DF00085EABC154BEA0E0685EA7C65A84484EA80
:104E00000A0505EA0C056540A8449D68A844956814
:104E1000A8444FEA7E3585EABE05C14485EABE5501
:104E20000095069F0BEA0E053E402E43009DC0F8FC
:104E300004907519A8444FEAF925C0F8148085EA52
:104E4000B9154EEA08070EEA080607EA0B0785EAD5
:104E500079653E432C198AEA0C0505EA090585EABD
:104E60000A052C19DD682C19D5682D194FEA7834FC
:104E700084EAB80484EAB8543619069C2F197419C8
:104E800006970461069D2E464FEAF62686EAB51778
:104E90008CEA090687EA7565AA44069D354085EACD
:104EA0000C05AA441D6948EA040707EA0E07083101
:104EB000AA44156955444FEA743A8AEAB40686EA68
:104EC000B45A08EA04063E43564405EB0B0A06EBC7
:104ED000050B4FEAFA2585EABA15C0F81CA0C0F800
:104EE0000CB044EA0B0785EA7A6507EA0807AC4488
:104EF000069D89EA050505EA0A0585EA0905AC4427
:104F00005D69AC44556965444FEA7B3C8CEABB065D
:104F100086EABB5C04EA0B063E43664405EB0E0CD6
:104F200006EB050E4FEAFC2585EABC15C0F818C053
:104F3000C0F808E04BEA0E0785EA7C652740A944E3
:104F4000069D85EA0A0606EA0C067540A9449D6995
:104F50000BEA0E063E43A9449569A9444FEA7E3503
:104F600085EABE05C844C0F8148085EABE557519A7
:104F70004FEAF826A94486EAB816C0F80490069DC0
:104F800086EA7866DB69D26975198AEA0C0606EA50
:104F9000080686EA0A0A55442B44D3184FEA7932A8
:104FA00082EAB9024EEA09060EEA090506EA0B068C
:104FB00082EAB95246EA050991441A19026109EBDD
:104FC000030210290692FFF4ABAE102105910EA941
:104FD000059A01EB8201059C049140398A6BD1F856
:104FE00004A013464FEAF34383EA72428B6B82EAD2
:104FF00093224B6A9A184FEABA4383EAFA1383EA78
:10500000DA039A180B689A180EAB039243F824201F
:105010000FF2EC52059BD0F818C002EB8302C36973
:10502000029202694569069FD0F808B0069E4FEAD1
:10503000F22484EAB21484EA7264E3188CEA050468
:10504000144084EA0C04E318029C2468E318039CCF
:1050500004EB0309069C4368A6464FEA7E3E8EEAAF
:10506000B4041F4307EA0B0784EAB6541E4047EA1C
:10507000060EA644C4684C44F144C460C0F81C90B9
:10508000CF6BD1F808803E464FEAF64686EA77476E
:10509000CE6B87EA962E8E6AB6444FEAB84686EA09
:1050A000F81686EAD8067644B244049E4FEAF42EF7
:1050B000C6F804A08EEAB4164FEA793E069F86EA47
:1050C0007466B44485EA020626406E40B444029EEB
:1050D00047EA09071F407668B444D4448EEAB9060B
:1050E000E34486EAB95E069EC0F808B006EA0906FF
:1050F0003E437644B444C0F818C0D1F80CE0039E97
:105100000096039F4FEAF746009F86EA7746039F83
:1051100086EA9726CF6ABE194FEABE4787EAFE178E
:1051200087EADE07BE19B044049E361DC6F8048027
:105130004FEAFB2686EABB1686EA7B66751982EA89
:10514000040606EA0B0656407519029EB6687519E4
:105150004FEA7C3686EABC064544EB1886EABC5624
:10516000019609EA0C060096069F49EA0C063E40A5
:10517000009F3E43019F4360F6194FEAFA4787EAD2
:105180007A47751945610E6987EA9A2A0F6BBA4406
:105190004FEAB64787EAF61787EAD607BA44F244D9
:1051A000049F4FEAF32E3F1DC7F808A08EEAB317FD
:1051B0004FEA753E87EA73673A4484EA0B071F405B
:1051C00067403A44029FFF683A448EEAB5074CEACA
:1051D000050E0EEA090E87EAB557524400970CEA0D
:1051E00005074EEA070E009FBE44069FD71972447A
:1051F00006974FEAF84787EA78470261D1F814E04A
:1052000087EA98284F6BB8444FEABE4787EAFE17F3
:1052100087EADE07B844B044049E361DC6F80C8009
:105220000094069C27464FEAF72686EAB41484EADF
:105230007766009C34193E468BEA03073E4086EAB7
:105240000B063419029E05EA02073669341908EB89
:1052500004064FEA723484EAB20484EAB254009439
:1052600045EA020404EA0C043C43009FE71906EBFC
:10527000090407EB06094FEAFA4787EA7A47C4614F
:10528000C0F80C908E6987EA9A2A8F6BBA444FEA6D
:10529000B64787EAF61787EAD607BA44F244049F6E
:1052A0004FEAF42E3F1DC7F810A08EEAB41787EA24
:1052B00074674FEA793EBB44069F5F4027405F40DA
:1052C000BB44029F7F69BB448EEAB90742EA090EDC
:1052D000D34487EAB9570EEA050E009702EA090798
:1052E0004EEA070E009FDC44C0F818C07744BB4468
:1052F0004FEAF847C0F808B087EA7847D1F81CE0D1
:1053000087EA9828CF6BB8444FEABE4787EAFE1772
:1053100087EADE07B844B044049E361DC6F8148000
:105320004FEAFC2686EABC1686EA7C66F318069EDF
:1053300086EA040707EA0C077E40F318029E49EA52
:105340000B071740B669F31843444FEA7B3888EAE5
:10535000BB0686EABB5809EA0B063E435F19476164
:105360004644F5184FEAFA43456083EA7A43096AEE
:10537000039E83EA9A234FEAB14A33448AEAF1163C
:105380004FEAF72A86EAD1018AEAB716C918049BC0
:10539000714486EA77661B1D9961069B334484EA53
:1053A0000C063E407440E318029CE469E318CB18F5
:1053B0004FEA75310BEA050481EAB50181EAB5517E
:1053C0004BEA050505EA09052C43641899180161A3
:1053D000E11806910599083140290591FFF4F7ADD0
:1053E00000214E9A50F8214002EB8102491C93683B
:1053F000E31808299360F4D34FB0BDE8F08F2DE98E
:10540000F041160004460D462ED0206800F03F07FC
:105410003018B042C7F14008206002D26068401CDA
:105420006060B7B1464514D3E01942462830454480
:10543000FEF7C2FC04F128012046FFF74FFCA6EB63
:105440000806002705E029462046FFF747FC4035BF
:10545000403E402EF7D23EB132462946E019283070
:10546000BDE8F041FEF7A8BCBDE8F08130B50D46BF
:1054700083B0044661682068C90041EA5071C000E9
:105480008DF803108DF807000B0C0A0E8DF8013013
:105490000B0A010E8DF800208DF80410010C8DF818
:1054A0000510010A8DF802308DF8061020780FF2F1
:1054B000502100F03F00382834BFC0F13802C0F15D
:1054C00078022046FFF79BFF082269462046FFF737
:1054D00096FFA068000E2870A068000C6870A06895
:1054E000000AA870A068E870E068000E2871E06803
:1054F000000C6871E068000AA871E068E871206932
:10550000000E28722069000C68722069000AA872D7
:105510002069E8726069000E28736069000C687386
:105520006069000AA8736069E873A069000E2874B6
:10553000A069000C6874A069000AA874A069E874E6
:10554000E069000E2875E069000C6875E069000AE2
:10555000A875E069E875206A000E2876206A000CBC
:105560006876206A000AA876206AE876A06E50B9AC
:10557000606A000E2877606A000C6877606A000A2B
:10558000A877606AE87737BDF0B59BB004460D4652
:1055900016461F466846FFF75FFB39466846FFF729
:1055A00067FB2A4621466846FFF729FF31466846D1
:1055B000FFF75CFF6846FFF752FB1BB0F0BD000031
:1055C00067E6096A85AE67BB72F36E3C3AF54FA594
:1055D0007F520E518C68059BABD9831F19CDE05BC0
:1055E000D89E05C107D57C3617DD703039590EF7C6
:1055F000310BC0FF11155868A78FF964A44FFABE8C
:10560000982F8A4291443771CFFBC0B5A5DBB5E92D
:105610005BC25639F111F159A4823F92D55E1CABA1
:1056200098AA07D8015B8312BE853124C37D0C552F
:10563000745DBE72FEB1DE80A706DC9B74F19BC177
:10564000C1699BE48647BEEFC69DC10FCCA10C2467
:105650006F2CE92DAA84744ADCA9B05CDA88F9764B
:1056600052513E986DC631A8C82703B0C77F59BFB5
:10567000F30BE0C64791A7D55163CA0667292914E1
:10568000850AB72738211B2EFC6D2C4D130D38537E
:1056900054730A65BB0A6A762EC9C281852C729240
:1056A000A1E8BFA24B661AA8708B4BC2A3516CC76E
:1056B00019E892D1240699D685350EF470A06A10A7
:1056C00016C1A419086C371E4C774827B5BCB034F6
:1056D000B30C1C394AAAD84E4FCA9C5BF36F2E6894
:1056E000EE828F746F63A5781478C8840802C78C23
:1056F000FAFFBE90EB6C50A4F7A3F9BEF27871C626
:105700008000000000000000000000000000000019
:105710000000000000000000000000000000000089
:105720000000000000000000000000000000000079
:105730000000000000000000000000000000000069
:10574000D82102F033BF00281CBFD821FEF7B0B922
:105750007047D822FEF740BB0022C0E90022C0E912
:10576000022271BBDFF8B82BDFF8B83BC0E9042395
:10577000DFF8B42BDFF8B43BC0E90623DFF8B02B29
:10578000DFF8B03BC0E90823DFF8AC2BDFF8AC3B17
:10579000C0E90A23DFF8A82BDFF8A83BC0E90C23F7
:1057A000DFF8A42BDFF8A43BC0E90E23DFF8A02B21
:1057B000DFF8A03BC0E91023DFF89C2BDFF89C3B0F
:1057C0002DE0DFF89C2BDFF89C3BC0E90423DFF8D9
:1057D000982BDFF8983BC0E90623DFF8942BDFF81D
