:020000040800F2
:10000000B032002041D2030821D1030823D10308D4
:1000100025D1030827D1030829D1030800000000D7
:100020000000000000000000000000002BD10308C9
:100030002DD10308000000002FD1030831D103089F
:1000400065D2030869D203086DD2030871D2030890
:1000500075D2030879D203083FD103087DD2030883
:1000600081D2030885D2030889D203088DD2030800
:1000700091D2030895D2030899D203089DD20308B0
:10008000A1D20308A5D20308A9D20308ADD2030860
:10009000B1D20308B5D20308B9D20308BDD2030810
:1000A000C1D20308C5D20308C9D20308CDD20308C0
:1000B000D1D20308D5D20308D9D20308DDD2030870
:1000C000E1D20308E5D20308E9D20308EDD2030820
:1000D000F1D20308F5D20308F9D20308FDD20308D0
:1000E00045D1030801D3030805D3030809D3030846
:1000F0000DD3030811D3030815D3030819D303083C
:100100001DD3030821D3030825D30308BD3C0308EE
:1001100029D303082DD3030831D3030835D30308AB
:1001200039D303083DD3030841D3030845D303085B
:1001300049D303084DD3030851D3030855D303080B
:1001400059D303085DD3030861D3030865D30308BB
:1001500069D303086DD3030871D3030875D303086B
:1001600079D303087DD3030881D3030885D303081B
:1001700089D303088DD303080000000000000000AD
:1001800091D3030895D3030899D303089DD303089B
:10019000A1D30308A5D3030800000000A9D30308D6
:1001A000ADD30308B1D30308000000000000000035
:1001B000B5D303080000000000000000B9D3030815
:1001C000BDD30308C1D30308C5D30308C9D30308AB
:1001D000CDD30308D1D30308003CFD00024F66666F
:1001E0008100DA0000018100DC00F8FFDC00FAFF8A
:1001F0008100D1001F010400006D0200206E02008A
:10020000206D0200206D0200206D0200206D0200B2
:100210002054020020E0001F020401019C0C002079
:10022000EC0C00209C0C00209C0C00209C0C00205E
:10023000AD02002094020020E0000008FD0000074D
:10024000FD000006FD000005F900052BC000002C94
:10025000C0FA000006FD000007F9000503040000D5
:100260008813FD000002FD000004FD000008FD00F1
:100270000010FD000B14014000180240001802405D
:1002800001F9000010FD0004C911000001FD000487
:10029000931A000001FD0004D103000001FD0010CD
:1002A000C1670208A762020800080240001002406D
:1002B00001FC0009800008000002400024F4F7005F
:020000040801F1
:100000000846704700281CBF0068002801D1002066
:10001000704790F901007047816B00291CBFD1F82F
:100020003C11002901D0086870470068816C0029E4
:10003000F9D100207047002918BF03F047BD704771
:1000400030B5044683B0206D0D4678B10FF2200024
:1000500002F021FF0195522302F029FCE06C236D90
:100060002A46A90803B0BDE83040184737BD000054
:100070007365745F74696D657220746F20256420E8
:100080006D7300002DE9F04FB3B006460C461546DF
:100090009946684603F04BFD304603F02FFD0600FD
:1000A00008BFDFF8040D6BD003F064FE0746DDF8EF
:1000B000F4A0484603F066FEC0195044812828BFCA
:1000C000DFF8E80C5CD2484603F05CFE834613A8D8
:1000D00000EB07085A464946404603F07BFE3C9930
:1000E000524608EB0B0003F075FE012231466846CC
:1000F00003F03DFD00280AEB0B0941D12A462146B9
:10010000684603F083FD4A46414600F041F800F09E
:100110003AF83E9D3F9E002409E003AB00EB040C3F
:100120001B5C05F80C30401C8842F6D31446B442E0
:1001300068461AD203F0F1FD09EB070200F027F838
:1001400003A900F021F8684603F0E7FD3A4600F005
:100150001EF800F018F83A1996423ABFB6FBF7F0CD
:1001600007FB106139460020DEE703F0E5FC802143
:1001700013A8FFF760FF402103A8FFF75CFF0020F2
:1001800033B0BDE8F08F13A9684603F09ABD13A9F8
:10019000684603F086BD1FB500F00AF8062003E0AC
:1001A0001FB500F005F80720FFF76CFF04B010BD85
:1001B000089C039400931346079C02940A46069CED
:1001C0000194014670472DE9F04F0446E5B0606B9D
:1001D000DFF868AEDFF8D46B059040F2F513A56C3C
:1001E000A06B049052460FF2804001F089FC286811
:1001F00090F9080003F02EFE5FEA000B286807D193
:1002000090F90800019040F2FB130FF26C400DE0F2
:1002100090F9090003F072FC079070B9286890F912
:100220000900019040F203230FF26C400090524607
:10023000012102F01AFF304610E26069DFF8688B96
:10024000DFF8FC9D032811D104984FF4277146185C
:10025000286890F9090007280DD1DFF8E80DB06093
:100260000FF205603060DFF8E00D0CE0CDF8009093
:1002700040F23223A9E1DFF8D40DB0600FF28D50C7
:100280003060DFF8CC0D70604FF42B710498084497
:1002900003900498D0F8300300286FD104984FF4ED
:1002A0003B710844069040F24323F06802905246A6
:1002B0000698019003210FF2044000F06DFCA06B42
:1002C000D0F8440301283DD10FF20440009040F2E1
:1002D0004B23524602F0EBFAA26BD2F89C2208A9FB
:1002E000204690476069032808D1A06C006890F907
:1002F0000900072814BF2027302700E02427029791
:1003000008A801904FF418730FF2E43000905246A1
:100310000321204603F09AFF3020029008AB059895
:100320000FF2DC322C3001900097F1680698D6F875
:1003300008C0E04707001CD00197CAA000904FF406
:100340001A7355E1302002900598039B0FF20C427E
:100350002C30019040200090F1680698D6F808C033
:10036000E047070005D00197BEA0009040F275233A
:100370003EE106984221FFF75EFE07E00FF298305B
:1003800000904FF41F73524602F091FA03994022F5
:1003900054A803F02FFD039820225CA903F02AFD46
:1003A00004984FF43373202254A9184403F022FD1B
:1003B000402154A8FFF73FFE4FF48070029014A82C
:1003C00001904020009030210598039BD6F808C08A
:1003D0000FF264322C30E047070005D00197A1A04E
:1003E000009040F2962303E10598006804F0E2F9DA
:1003F000019040F29B230FF250300090524602F0E1
:1004000056FA302002904FF4277305982C30019053
:1004100052460FF248300090032100F0BEFB40200E
:10042000029040F29D230398019052460FF23C3017
:1004300001F012F84FF48070029040F29E2314A84D
:10044000019052460FF2343002F0D4F80398402164
:10045000FFF7F1FDDBF80400C00868609BF90100BC
:10046000062818BF08282FD1002068610C20E860FA
:10047000042028612868007F80074CBF10201820C6
:10048000A8606869049040F2FF23E8680390524630
:10049000A86802900321686801900FF2EC2000F038
:1004A000D7FF02F0B0FA00F18780696914A800EB69
:1004B000410202926868161814AA114400912F692B
:1004C000002F08BFEF683CE00799012205F13800D2
:1004D00003F04DFB070007D10799012205F1440005
:1004E00003F045FB070006D0019740F2BB230FF253
:1004F000C82000907CE0079803F03CFC68610598F8
:10050000406F012804BF0A206861DBF80C006969AC
:10051000E8609BF90120072A08BFA960B1D0DBF889
:100520001420B1FBF2F102FB0121A9606269022AE9
:1005300014BF032A4018A3D0CDF8009040F2F7234F
:1005400043E031183A4605F1180003F043FC6868AF
:100550003018C1193A4605F1280003F03BFC6069E8
:1005600001282EDB6A6914A905F1380003F04EFB5F
:100570006A69009905F1440003F048FB2068D0F84F
:100580003CC0BCF1000F08D0019714AA6968009123
:1005900005996B69006C2C31E047594605F1500014
:1005A00003F08FFC07000FF2242814D00197CDF838
:1005B000008040F26D331BE0CDF8009040F22D3307
:1005C00003E0CDF8009040F249335246012102F099
:1005D0004CFD404642E005F188095946484603F083
:1005E00070FC070009D00197CDF800804FF45D73CF
:1005F000524601F0E2FB384630E0DBF80420029975
:10060000012305F1500003F071FC05000FF2D4172F
:1006100004D0019500974FF45F730CE0DBF80420E1
:1006200000233146484603F061FC050008D00195DF
:1006300000974FF46173524601F0BFFB28460DE06E
:100640004FF4807114A8FFF7F6FC0FF2B010009081
:1006500040F2BD33524602F007FD002065B0BDE810
:10066000F08F0000707266003D3E2064657269760E
:1006700065206B6579730000636970686572206935
:100680006E666F20666F72202564206E6F74206620
:100690006F756E64000000006D626564746C735F5A
:1006A0006D6420696E666F20666F72202564206E0F
:1006B0006F7420666F756E64000000007072656D67
:1006C0006173746572207365637265740000000065
:1006D0007573696E6720657874656E646564206DF6
:1006E0006173746572207365637265740000000045
:1006F00073657373696F6E20686173680000000032
:10070000657874656E646564206D617374657220CC
:1007100073656372657400006E6F207072656D6141
:1007200073746572202873657373696F6E207265C8
:1007300073756D65642900006B657920657870615B
:100740006E73696F6E00000063697068657273751F
:10075000697465203D202573000000006D6173748D
:1007600065722073656372657400000072616E6467
:100770006F6D206279746573000000006B657920ED
:10078000626C6F636B0000006B65796C656E3A207C
:1007900025642C206D696E6C656E3A2025642C20D2
:1007A00069766C656E3A2025642C206D61636C65FA
:1007B0006E3A2025640000006D626564746C735F9E
:1007C0006D645F7365747570000000006D62656430
:1007D000746C735F6369706865725F73657475705C
:1007E000000000006D626564746C735F636970681B
:1007F00065725F7365746B65790000003C3D206431
:100800006572697665206B657973000070B59EB07E
:1008100004460E4603A804F025FA0FF2A80002F0E1
:10082000E3F840F2164302F01EFCA06B4FF4A871EF
:10083000014403A804F01FFA314603A804F01BFE8C
:1008400020200290019640F21B4300F05BF80FF26B
:10085000A400009040F21C4302F005FC03A804F041
:1008600004FA1EB070BD000070B5BAB004460E4662
:1008700004A804F069FF0FF2640002F0B5F840F23A
:100880002B4302F0F0FBA06B4FF4E071014404A88D
:1008900004F063FF314604A805F0CBFB3020029042
:1008A00001964FF4866300F02DF80FF24800009097
:1008B00040F2314302F0D7FB04A804F048FF3AB0FD
:1008C00070BD00003D3E2063616C632076657269F7
:1008D0006679207368613235360000003D3E206342
:1008E000616C63207665726966792073686133385C
:1008F000340000003C3D2063616C632076657269C2
:10090000667900000FF20C0000902A460321204671
:1009100003F09CBC63616C63756C617465642076E4
:10092000657269667920726573756C7400000000E9
:100930002DE9F04F8DB004460FF2B010DFF8FC86C1
:10094000DFF86494DFF8F8A6009040F2EA434246EC
:1009500002F08AFBE06A00281CBF206C002804D14A
:10096000CDF800A040F2EE43B8E05030FFF74AFB6C
:1009700004F190050646A869029040F2F543286903
:10098000019042460FF2741000F066FD062E18BF6B
:10099000082E40F09F80206C0068007F2968800747
:1009A0004CBF08261026082209A803F013FA09AF45
:1009B000686938720DF12D0300F08CFAA869000AFD
:1009C0008DF82F0040F25B53A869387342460D2022
:1009D0000290042109A800F085FA206C0369C1681F
:1009E000C91A082904D0CDF800A040F2635375E07D
:1009F000296818440822183003F0ECF92968E868DF
:100A0000082203F0E7F9206CC1680069081A029017
:100A100040F26C53E868019042460FF2F83000F063
:100A20001BFD2F69A86907904FF4AF63216CCA685A
:100A300009691018401AA861019000210FF2DC002A
:100A400002910090424601F032FF079807EB000B3D
:100A5000206C069608A9CDF814B00491039709AB51
:100A60000799029101970D21009100F11801C268C8
:100A7000503003F003FB07000AD0019740F2855382
:100A80000FF2D4000090424601F097F938462AE070
:100A900008980799884204D0CDF800A040F28B5303
:100AA0001CE0A8693018A8610296CDF804B040F2A5
:100AB00092530FF2C00000904246042100F06DF8FE
:100AC0000FF2C40000904FF4C363424602F0CCFA28
:100AD000002008E0CDF800A040F20D63424601215D
:100AE00002F0C3FA48460DB0BDE8F08F3D3E2065E8
:100AF0006E63727970742062756600006265666F5D
:100B0000726520656E63727970743A206F757470C7
:100B10007574207061796C6F616400006265666F46
:100B2000726520656E63727970743A206D73676CBC
:100B3000656E203D2025642C20696E636C756469A8
:100B40006E67202564206279746573206F6620705B
:100B5000616464696E6700006D626564746C735FE4
:100B60006369706865725F617574685F656E6372F2
:100B700079707400616674657220656E6372797055
:100B8000743A2074616700003C3D20656E637279A1
:100B900070742062756600000090204603F056BB1A
:100BA0002DE9F04F8FB004460FF20420DFF88C944B
:100BB000DFF8F4A1DFF888B400904FF4C5634A462B
:100BC00002F052FAA06A00281CBFE06B002804D192
:100BD000CDF800B040F22C63B7E08830FFF712FA8E
:100BE000E26BA16F9368DFF8788D994206D2029389
:100BF000019140F235630FF2C81017E0062818BFC4
:100C0000082840F09E801068007F8007D068126935
:100C10004CBF08251025801A2A18914208D2039546
:100C20000290019140F265630FF2B410009082E0EF
:100C3000081A461BE06E07900990A6670822E16D2E
:100C40000AA803F0C7F80AAF606F38720DF13103DC
:100C500000F040F9A06F000A8DF8330040F276638F
:100C6000A06F38734A460D20029004210AA800F0B4
:100C700039F9E06B0369C168CA1AA16E18442830BB
:100C800003F0A8F8E06BC16802912830019040F2AF
:100C90007D630FF2801000F03DF9079802958719E7
:100CA000019740F27E630FF2741000F033F9E06BAD
:100CB0000695059708A904910AAB09990391029634
:100CC000079901910D21009100F12801C268883037
:100CD00003F00DFA05000DD0019540F28B630FF281
:100CE000481000904A4601F068F815F5C64F26D026
:100CF000284655E00898B04204D0CDF800B040F244
:100D0000966322E0A06F02904FF4EF63E06E0190D3
:100D10004A460FF2301000F09FFBA06FD8B9D4F80C
:100D20008400401C0428C4F8840017DB0FF2301044
:100D300000904FF4FD634A46012102F096F94046C7
:100D40002EE0CDF800B040F273734A46012102F064
:100D50008CF9504624E00020C4F884000820E16D9E
:100D600000F086FAE16D014411F8011C11B9401E32
:100D7000F5D100E058B940F2FE730FF22410009054
:100D80004A46012102F071F9DFF8080E08E00FF27F
:100D90003410009040F603034A4602F065F9002043
:100DA0000FB0BDE8F08F00000094FFFF008FFFFF41
:100DB0003D3E206465637279707420627566000040
:100DC000696E5F6D73676C656E2028256429203C11
:100DD000206D696E6C656E20282564290000000076
:100DE0006D73676C656E2028256429203C2065782A
:100DF000706C696369745F69765F6C656E20282525
:100E00006429202B207461676C656E202825642975
:100E10000000000049562075736564005441472066
:100E200075736564000000006D626564746C735FC7
:100E30006369706865725F617574685F6465637229
:100E400079707400726177206275666665722061E0
:100E5000667465722064656372797074696F6E0080
:100E6000726563656976656420666F757220636F6D
:100E70006E736563757469766520656D707479202D
:100E80006D657373616765732C20706F737369622E
:100E90006C6520446F532061747461636B000000C3
:100EA000696E636F6D696E67206D657373616765E9
:100EB00020636F756E74657220776F756C64207730
:100EC000726170003C3D20646563727970742062C9
:100ED000756600002068406F6169C0F340022069B8
:100EE00002F064BC01900FF20C000090204603F069
:100EF000ADB900006164646974696F6E616C2064EF
:100F0000617461207573656420666F72204145418C
:100F10004400000000904A460421204603F096B9A0
:100F20002DE9F04784B004460FF22C10DFF80CA135
:100F3000484F00900D464FF40A63524602F094F871
:100F4000E069002804BF206A002805D10FF2802044
:100F5000009040F6A5030CE0216E41F2B530401A36
:100F6000A16D0818A8420AD20FF2FC00009040F6CA
:100F7000AB035246012102F078F838465BE0029557
:100F800040F63E13E06F0FF200170FF218180FF241
:100F90002C1901900097524602F066F802E0E06FCB
:100FA0003018E067E06FA8423CD2616D2E1A08004D
:100FB0000CD0E06C8847022808D1CDF8009060235F
:100FC000524601F074FCDFF85C6D11E0206EE16FB9
:100FD000D4F820C00144606ABCF1000F04D022683C
:100FE000136E3246E04702E0E36932469847064610
:100FF000029540F65613E06F01900097524602F0BA
:1010000033F80196CDF8008040F65713524602217E
:1010100000F0D4FE002E02D1DFF80C0D0BE0BED59F
:10102000304608E00FF2A400009040F663135246E9
:1010300002F01AF8002004B0BDE8F087EC37010890
:1010400048380108A1010108FF250108970101089E
:1010500027250108008FFFFF3D3E20666574636809
:1010600020696E70757400007265717565737469BE
:101070006E67206D6F7265206461746120746861B1
:101080006E20666974730000696E5F6C6566743A01
:101090002025642C206E625F77616E743A2025648F
:1010A0000000000073736C2D3E665F7265637628E6
:1010B0005F74696D656F75742900000074696D65F2
:1010C0007220657870697265640000003C3D20669E
:1010D0006574636820696E70757400002DE9FE43C5
:1010E00080460FF2DC00DFF8449C00904FF4176359
:1010F00000F0C5F808F11806306858B90FF2D000B2
:10110000009040F675134A46012100F0BAF8DFF866
:10111000200C53E008F1A8040FF2F007606830B922
:10112000009740F67C1346E06068401B6060606892
:1011300028B3029040F683132068401D01904A4670
:101140000FF2D800009000F09BF8F06F2168626801
:101150003368084451420844411DF06898470546E9
:10116000019540F689130FF2D80000904A460221FB
:10117000404603F040F8012DD6DA28461EE008204C
:10118000B16F00F075F8B16F014411F8011C79B925
:10119000401EC0B20028F3D10FF2B000009040F61C
:1011A00098134A46012100F06CF8DFF8E80905E0E1
:1011B000009740F69C1300F062F80020BDE8FE8323
:1011C0003D3E20666C757368206F75747075740091
:1011D000426164207573616765206F66206D62658A
:1011E00064746C735F73736C5F7365745F62696F53
:1011F0002829206F72206D626564746C735F73734D
:101200006C5F7365745F62696F2829003C3D2066DE
:101210006C757368206F7574707574006D65737389
:10122000616765206C656E6774683A2025642C20C0
:101230006F75745F6C6566743A2025640000000069
:1012400073736C2D3E665F73656E64006F757467B3
:101250006F696E67206D65737361676520636F7575
:101260006E74657220776F756C64207772617000A0
:10127000014411F8012C521C01F8012C70474A4618
:101280000221404602F091BFF0B5044604F19405F6
:1012900085B06F690FF22010DFF8906A009040F679
:1012A0008D23324601F0E0FE2869162821D1E86836
:1012B000017869B1A26B5AB9DFF8780A009040F65C
:1012C0009F233246012101F0D0FEDFF86C0A71E065
:1012D0003A1F130C4370100AEA689070381FEA68CE
:1012E000D07031B1A36BE968D3F898323A46204602
:1012F000984729682869087028686169431C206834
:10130000406FC0F34002206902F050FA00F09AF8F2
:10131000206C90B12046FFF70BFB07000AD00FF2BC
:10132000A8000090019740F60833324600F045FDD2
:1013300038463FE06F6900F085F840F6163368697B
:101340002968401DA86168680278407840EA022058
:10135000049032468878039048780290087801908B
:1013600003210FF2740000F073F86869401D0290C9
:1013700040F619332868019032460FF2980000F0C9
:101380006BF82046FFF7AAFE05000AD0DFF8A80D8B
:101390000090019540F61E33324600F00EFD2846BF
:1013A00008E00FF29000009040F62233324601F040
:1013B0005BFE002005B0F0BD3D3E2077726974658C
:1013C000207265636F72640073736C5F656E637225
:1013D0007970745F627566006F75747075742072D1
:1013E00065636F72643A206D736774797065203D30
:1013F0002025642C2076657273696F6E203D205B1A
:1014000025643A25645D2C206D73676C656E203D04
:10141000202564006F7574707574207265636F7237
:10142000642073656E7420746F206E6574776F72BC
:101430006B0000003C3D2077726974652072656323
:101440006F7264006968380A08706868477070478E
:101450000090204602F0A9BE00900421204602F030
:10146000F5BE30B5044685B0A06FDFF8C05804283B
:1014700009D2019040F606430FF2600000F045FBF0
:10148000DFF8B80C27E0E16E8B784A781B0243EA5C
:101490000242CB781A43121DC4F88020039240F612
:1014A00011430978019002912A460FF2500001F091
:1014B00002FAA06FD4F8801088420BD20FF27400A9
:1014C000009040F64F432A46012101F0CEFDDFF89F
:1014D000700C00E0002005B030BD000068616E6453
:1014E0007368616B65206D65737361676520746FE8
:1014F0006F2073686F72743A2025640068616E64AF
:101500007368616B65206D6573736167653A206D03
:1015100073676C656E203D2025642C20747970659E
:10152000203D2025642C2068736C656E203D2025AD
:1015300064000000544C532068616E647368616BF2
:101540006520667261676D656E746174696F6E2087
:101550006E6F7420737570706F7274656400000034
:10156000416810291CBF836B002B05D0D0F8802068
:10157000C16ED3F898321847704770B588B00446EA
:101580000520029040F69653206EDFF8A057DFF852
:10159000AC6B01902A460FF21010FFF75DFF206E32
:1015A00001786167431C616E0A78497841EA02213B
:1015B000A16705A92068406FC0F3400206A802F0A9
:1015C000F8F8A06F049040F69F53059803902A46C0
:1015D000069802900321606F01900FF2E000FFF780
:1015E00037FF606F162818BF152812D0142818BFAF
:1015F00017280ED00FF20010009040F6A7532A468D
:10160000012101F032FD0A220221204600F083FA76
:1016100045E006982169884205D00FF2F00000905D
:101620004FF45B6337E02068059990F871008842B9
:1016300005DA0FF2F000009040F6B6532BE0E36EAF
:10164000A06F0FF29C3141F2B532D21AA36D9A18F5
:10165000824203D2009140F6BE531CE0E26B42B9D5
:1016600018B141F2893290421BD3009140F6C85321
:1016700011E09268904203D200914FF45D630AE05A
:101680006369012B0DDB02F5A0528832824208D239
:10169000009140F6E5532A46012101F0E6FC304670
:1016A00000E0002008B070BD696E7075742072652E
:1016B000636F72642068656164657200696E70753D
:1016C00074207265636F72643A206D736774797009
:1016D00065203D2025642C2076657273696F6E202D
:1016E0003D205B25643A25645D2C206D73676C6535
:1016F0006E203D2025640000756E6B6E6F776E2046
:101700007265636F72642074797065006D616A6FD1
:10171000722076657273696F6E206D69736D617486
:10172000636800006D696E6F722076657273696F11
:101730006E206D69736D617463680000F0B583B0ED
:1017400004460FF2800001F04FF940F6896301F082
:101750008AFC04F17406706918BB204600F064F836
:10176000070006D00FF26C000197009040F69163DD
:101770000DE0204600F03EF9074617F5CD4FECD0BE
:1017800047B10FF250000197009040F69B632A4644
:1017900001F0D1BD306816280CD12046FFF7E0FEDD
:1017A00008E00FF25000009040F6A66301F05BFCE9
:1017B0000020706140F6AA630FF25C00009001F017
:1017C000DDB800003D3E2072656164207265636F84
:1017D000726400006D626564746C735F73736C5F38
:1017E000726561645F7265636F72645F6C61796575
:1017F000720000003C3D2072657573652070726553
:1018000076696F75736C792072656164206D65739C
:1018100073616765000000003C3D207265616420D3
:101820007265636F72640000FEB50446206FD4F8E1
:101830008010DFF8F85451B358B1DFF8F804009085
:1018400040F6D8632A46012101F00FFCDFF8E804D6
:10185000FEBDA06F814211D2421AE06EA267014420
:1018600004F016FFA06F029040F6F863E06E01905E
:101870002A460FF2F000FFF7EFFD01E00020A0671D
:101880000020C4F88000A06F20B10020FEBD002819
:10189000FBD1A06705212046FFF742FB06000FF2AF
:1018A000E00707D00196009740F6237300F084FA12
:1018B0003046FEBD2046FFF760FE0028E6D1A06F4F
:1018C000411D2046FFF72CFB060004D0019600972F
:1018D00040F64D73EAE70020E06740F64263A06FF0
:1018E000401D02902A46206E019004210FF2A800AC
:1018F000FFF752F9E06B0028C7D02046FFF750F9F8
:10190000060010D00FF2AC000090019640F658632C
:1019100000F052FA16F5E34FCAD1142202212046F4
:1019200000F0F9F8C4E7A06F029040F65D63E06E46
:1019300001902A460FF28C00FFF78EFDA06F41F256
:1019400089318842A1D30FF29800DFF8F067009048
:1019500040F661632A46012101F087FBA8E70000F9
:10196000808EFFFF72656D61696E696E6720636FBF
:101970006E74656E7420696E207265636F726400A8
:101980006D626564746C735F73736C5F66657463BA
:10199000685F696E70757400696E70757420726529
:1019A000636F72642066726F6D206E6574776F72FC
:1019B0006B00000073736C5F646563727970745FB1
:1019C00062756600696E707574207061796C6F6104
:1019D0006420616674657220646563727970740056
:1019E000626164206D657373616765206C656E6705
:1019F000746800003EB50446606F162804D1204686
:101A0000FFF72FFD00283ED1606F15283AD1E06E18
:101A1000C64D4178029140F6D573007801902A4670
:101A20000FF2640000F06CF8E06E017802290AD130
:101A30004078019040F6DD730FF2700000F065F819
:101A4000DFF8D40D3EBD012904BF4278002A09D138
:101A50000FF27C00009040F6E47301F004FBDFF825
:101A6000BC0D3EBD012904BF4078642807D10FF2A8
:101A70007C00009040F6EC7301F0F5FA02E0DFF82C
:101A8000A00D3EBD00203EBD676F7420616E2061D9
:101A90006C657274206D6573736167652C20747951
:101AA00070653A205B25643A25645D0069732061A6
:101AB00020666174616C20616C657274206D657361
:101AC0007361676520286D73672025642900000015
:101AD0006973206120636C6F7365206E6F74696633
:101AE00079206D657373616765000000697320611B
:101AF0002053534C7633206E6F5F63657274000021
:101B000000900221204602F050BB00902A4601219D
:101B1000204602F04ABBFEB504001CBF2068002826
:101B20000D46164601D18248FEBD0FF26C007F4F74
:101B3000009041F21C033A4601F096FA0FF2700051
:101B400000900296019541F21D033A4600F0AFFE67
:101B500004F1A000152141600221816001680D702F
:101B60000068467001F0E4FB05000AD0DFF8B40C11
:101B70000090019541F226033A4600F01EF92846EE
:101B8000FEBD0FF24C00009041F229033A4600F0EE
:101B9000F6BE00008094FFFF3D3E2073656E64201A
:101BA000616C657274206D65737361676500000018
:101BB00073656E6420616C657274206C6576656C0B
:101BC0003D2575206D6573736167653D2575000062
:101BD0003C3D2073656E6420616C657274206D6598
:101BE00073736167650000002DE9FE430446DFF86A
:101BF0003C91A06C06680FF24410009041F26B0318
:101C00004A4601F031FA96F90A000FF24811052808
:101C100018BF062803D0082818BF0B2803D100914D
:101C200041F2720309E000F0EEFE04F1A0060BD4CD
:101C3000306948B9009141F27C034A4601F014FA38
:101C40006068401C606069E02046FEF7E5F901909D
:101C500041F29F030FF2181000904A4603212046DC
:101C600002F0CAFC2046FEF7D7F90727804613E0AA
:101C70003268290CD155290A32683A4451702A46F3
:101C800031683944FF1C8D7041683068384402F077
:101C9000A1F8D8F83081EF19B8F1000F19D008F188
:101CA000040041F285310568C91BA942E0D241F226
:101CB0008830029041F2B303E819C01C01904A46F3
:101CC0000FF2BC000090012101F0CFF9DFF8200DE8
:101CD00025E03268F81F010C1171000A3168487163
:101CE000F81F3168887116207060B7600B2031686A
:101CF000087001F01AFB060008D000F039FB41F231
:101D0000CF034A4600F059F8304608E00FF2900041
:101D1000009041F2D3034A4601F0A6F90020BDE845
:101D2000FE8300000098FFFF808DFFFFEC37010865
:101D3000008FFFFF483801080094FFFF3D3E2077E9
:101D4000726974652063657274696669636174653C
:101D5000000000003C3D20736B697020777269744D
:101D6000652063657274696669636174650000006B
:101D70006F776E206365727469666963617465006C
:101D8000636572746966696361746520746F6F203E
:101D90006C617267652C202564203E20256400005C
:101DA0003C3D207772697465206365727469666969
:101DB00063617465000000002A460121204602F09C
:101DC0001ABA2DE9F04F054685B0A86CDFF8D0BDF2
:101DD000D0F800A02868406FC0F381090FF264308A
:101DE00000904FF487535A46022101F068FA9AF99D
:101DF0000A00052818BF062803D0082818BF0B289A
:101E00000DD10FF25830009041F2E7035A460221FB
:101E100001F055FA6868401C6860002089E1284696
:101E2000FFF78CFC040006D0DFF8780D00900194D9
:101E300041F2081392E068680FF23C36401C68607B
:101E4000686F16280AD0009641F2451301F035FA62
:101E50000A2200F045FADFF8500D6AE1E86EDFF87B
:101E60004C8D01780B2903D1D5F880100A2903D2B3
:101E7000009641F24E134EE0027932B942798079F0
:101E800040EA0220C01D814203D0009641F25E1359
:101E900041E0686BC06D38B106F07EF9686BDFF821
:101EA000DC1DC06D09688847DFF8D42D12684FF437
:101EB0009A7101209047696BC86570B94FF49A70A8
:101EC000019041F26F13DFF8BC0D00F00CFA5022C4
:101ED00000F006FADFF8B00D2BE106F059F9072003
:101EE00000E03846D5F8801088423AD2EB6E1A18D6
:101EF00014781CB1009641F27D130CE0547892786E
:101F000042EA0422C01C802A24BF1718B94206D214
:101F1000009641F2891301F0D0F9322252E01918EB
:101F2000686BC06D04F011FF0400DAD0DFF85C1DAF
:101F3000401A06D040F25221401AD2D0AE3802D018
:101F400003E0502202E02B2200E02A2200F0C8F930
:101F50000FF23C200090019441F2A51301F0A8F982
:101F6000E6E0686BC06D019041F2AC130FF23C20CB
:101F700000905A460321284602F03EFB2F6897F84E
:101F80007400C00722D4A86801281FD1286BC36D34
:101F90002BB90FF22C20009041F2B8130FE0686BC0
:101FA000C06D5A6841688A4204D18168986806F019
:101FB00073F958B10FF23020009041F2C41301F0D0
:101FC0007CF9312200F08CF94046B2E0B9F1000F03
:101FD00000F0A580A86B4FF4A47146580844002E69
:101FE00012BF4268FE6C3A6D686BB96B0391796BF6
:101FF000029100F160010191D5F8B41000917B6C61
:10200000C06D314605F0FBFF040007D00FF204203D
:102010000090019441F2EB1301F04AF9686BC06D36
:1020200000F1BC070221384606F0A3F9B0B1D7E9A8
:102030000001FDF7E5FF90F90010284601F062FB72
:1020400060B1686B016E41F48031016641F2FC13AE
:102050000FF2D41000F047F904B944462968686BC0
:10206000496F00F1600381F0010101F00102C06DD0
:10207000514601F062FB40B10FF2CC10009041F2EA
:10208000082301F01AF904B94446B9F1010F0DD142
:1020900014F51C5F01D100242EE04445FBD05CB355
:1020A000686B006EC10510D5312223E0002E08BFF9
:1020B000B9F1020FF3D10FF2B410DFF8204D009008
:1020C00041F21C2301F0F9F8EAE7410748BF2A2250
:1020D00010D410F4DC3F18BF2B220BD1C10748BF2E
:1020E0002D2207D4810748BF2C2203D400074CBF00
:1020F00030222E2200F0F4F8686B006E30B10190AF
:1021000041F243230FF27410009004E00FF290109C
:10211000009041F247235A46032101F0D0F80FF214
:10212000A810009041F24C235A46022101F0C7F852
:10213000204605B0BDE8F08F5C380108008EFFFF37
:10214000808FFFFF3D3E2070617273652063657272
:102150007469666963617465000000003C3D20732A
:102160006B69702070617273652063657274696653
:102170006963617465000000626164206365727464
:1021800069666963617465206D6573736167650075
:10219000206D626564746C735F783530395F63728B
:1021A000745F70617273655F6465720070656572FB
:1021B000206365727469666963617465000000007C
:1021C0006E65772073657276657220636572742020
:1021D000647572696E672072656E65676F74696198
:1021E00074696F6E0000000073657276657220631B
:1021F000657274206368616E6765642064757269D6
:102200006E672072656E65676F74696174696F6E61
:1022100000000000783530395F7665726966795F55
:10222000636572740000000062616420636572740B
:102230006966696361746520284543206B65792070
:10224000637572766529000062616420636572744B
:1022500069666963617465202875736167652065C7
:102260007874656E73696F6E73290000676F7420F0
:102270006E6F20434120636861696E0021204365D1
:1022800072746966696361746520766572696669EE
:10229000636174696F6E20666C61677320257800D6
:1022A00043657274696669636174652076657269F5
:1022B0006669636174696F6E20666C616773206321
:1022C0006C656172000000003C3D207061727365B6
:1022D000206365727469666963617465000000005B
:1022E0000221284617E400905A460121284601F0B1
:1022F0005CBF7CB504460FF2400000F075FB41F274
:102300005C2300F0B0FE04F1A00014214160012123
:1023100081600068017001F008F8060004D000F048
:1023200027F841F26623CEE00FF22800009041F238
:102330006A2301F072B800003D3E2077726974652F
:10234000206368616E6765206369706865722073D9
:10235000706563003C3D2077726974652063686135
:102360006E676520636970686572207370656300CD
:10237000DFF8B0040090019670477CB504460FF278
:10238000B00000F031FB41F2732300F06CFE2046F8
:10239000FFF7D4F9060006D0DFF808080090019690
:1023A00041F277238FE0616F0FF2A00014290BD068
:1023B000009041F27D232A46012100F056FE00F0F4
:1023C0007DF8DFF8E40776BDA16F012902BFE16E59
:1023D000097801290CD0009041F285232A46012179
:1023E00000F043FE322200F06AF8DFF8000B76BD01
:1023F0000FF27800009041F28F2300F057FAA06CA2
:10240000E0630821606BA062E06D01F05FFB616931
:10241000A06E00F0EFFAE06641F2C1236068401C54
:1024200060602A460FF27800009000F0F7BF0000CD
:102430003D3E207061727365206368616E67652040
:1024400063697068657220737065630062616420FF
:102450006368616E67652063697068657220737078
:102460006563206D657373616765000073776974D8
:102470006368696E6720746F206E6577207472617F
:102480006E73666F726D207370656320666F722065
:10249000696E626F756E6420646174610000000093
:1024A0003C3D207061727365206368616E676520D2
:1024B0006369706865722073706563000A22022187
:1024C0002046FFF728BB2A460121204601F093FE53
:1024D000304676BD91F90910806B07290CBF0FF2C9
:1024E00039010FF22901C0F89812704770B50446FF
:1024F0004FF4A873A06B0D461646184402F084FFF3
:1025000032462946A06BBDE8704007E0806B4FF46F
:10251000A873184402F078BFD0F838004FF4E07385
:10252000184403F044BD2DE9F0410446A6B000F084
:10253000E9F80BA802F096FB0FF28400DFF8608642
:10254000009041F2C233424600F08EFDA06B4FF482
:10255000A87101440BA802F08EFB2020029041F2EA
:10256000CE330DA8019042460FF2740000F042F8FD
:10257000002F0CBF0FF258170FF2641703A90BA816
:1025800002F079FF00F0C4F8202000F0D9F800F044
:10259000BFF841F2DA3300F0BFF80BA802F065FB98
:1025A000202103A8FDF747FD0FF2441000904FF4DF
:1025B0009F53424600F058FD26B0BDE8F081000070
:1025C0003D3E2063616C63202066696E69736865B7
:1025D0006420746C7320736861323536000000002B
:1025E00066696E697368656420736861322073740C
:1025F0006174650000900421204601F027BE2DE99A
:10260000F0410446C6B000F07DF810A803F09CF835
:102610000FF28400DFF88885009041F2F3334246E0
:1026200000F022FDA06B4FF4E071014410A803F00C
:1026300094F84020029041F2FF3314A801904246E2
:102640000FF27400FFF7D6FF002F0CBF0FF28007C8
:102650000FF28C0703A910A803F0EBFC00F058F868
:10266000302000F06DF800F053F841F20B4300F019
:1026700053F810A803F06BF8302103A8FDF7DBFC3A
:102680000FF26C00009041F21143424600F0ECFC66
:1026900046B0BDE8F08100003D3E2063616C6320E0
:1026A0002066696E697368656420746C7320736852
:1026B000613338340000000066696E6973686564D0
:1026C00020736861353132207374617465000000D5
:1026D000636C69656E742066696E69736865640011
:1026E0007365727665722066696E697368656400E9
:1026F0003C3D2063616C63202066696E6973686588
:1027000064000000666B0D46174606B9266B7047DD
:102710000C200290019570470FF20C000090424689
:102720000321204601F092BD63616C632066696EEF
:10273000697368656420726573756C7400000000CD
:10274000009003AB06F12C00A66BD6F8A4623A46C3
:1027500030213047F8B50446DFF84454A06BD0F878
:1027600030630FF2C400009041F2334300F09EF852
:10277000A068012803D10220A0600020E060206B47
:10278000DFF8F87420B100F08FFE206B39688847BD
:10279000616B2163002060632068426A13001CBFE4
:1027A0008B68002B0CD05EB9806A904740B10FF265
:1027B0008C00009041F256432A46012100F055FC5E
:1027C0000FF29400009041F2184300F06FF8A06BF4
:1027D00000F044FEA06B396888470020A063606C5D
:1027E00020B100F021FE606C39688847A06C6064FD
:1027F00041F22C430020A0642A460FF27C0000F036
:102800005AF86068401C606041F26A430FF2880029
:10281000009000F04BF8F1BD8088FFFF8087FFFF3C
:102820008099FFFF783801083D3E2068616E64732F
:1028300068616B65207772617075700063616368B1
:102840006520646964206E6F742073746F726520F4
:1028500073657373696F6E003D3E2068616E6473CB
:1028600068616B65207772617075703A2066696E79
:10287000616C2066726565003C3D2068616E647322
:1028800068616B65207772617075703A2066696E59
:10289000616C2066726565003C3D2068616E647302
:1028A00068616B6520777261707570002A4603213C
:1028B000204601F07ABC00900321204601F075BC4F
:1028C000F0B583B004460FF2C40000F08DF841F279
:1028D000714300F0C8FB04F190066169F06800F0F4
:1028E00089F83061206890F87400A36BD3F8A032A7
:1028F00000F001023069011D2046984760690028F8
:1029000030690CBF24270C27011D37633A4604F1B8
:10291000C40001F05FFA381DB06116207061142008
:1029200031690870A06BD0F8300320B100F06BF86B
:1029300004D40F2001E06068401C60600FF260006A
:10294000009041F2A743FFF7B1FF3068082101F082
:10295000BDF8A06C2064606BE06200F0E9FC06004A
:1029600007D0FFF705FD41F2DA43FFF725FA3046BD
:10297000FEBD0FF26000009041F2DE432A460221C4
:10298000204601F012FC0020FEBD00003D3E2077F5
:10299000726974652066696E697368656400000019
:1029A000737769746368696E6720746F206E6577EA
:1029B000207472616E73666F726D20737065632030
:1029C000666F72206F7574626F756E6420646174D7
:1029D000610000003C3D2077726974652066696E75
:1029E00069736865640000006D4D009070470000D9
:1029F000008BFFFF022905DBA16CCA68096910443E
:102A0000494208447047206890F87400C007704736
:102A1000F0B585B004460FF2F400FFF7E5FF41F290
:102A2000EF4300F020FB2068A36B90F87400D3F80C
:102A3000A03200F0010080F0010202A92046984770
:102A40002046FEF77BFE060007D056480090019610
:102A500041F2F543FFF7B0F937E0616F0FF2C000C4
:102A600016290AD0009041F2FB432A46012100F0CA
:102A7000FCFAFFF723FD4C4845E0E16EDFF8506AB1
:102A80000A78142A04BFD4F88020102A03D00090BA
:102A900041F20C5312E0091D002200230DF1080C35
:102AA000CF5C1CF803C08CEA07073A435B1C0C2B75
:102AB000F4D3D2B25AB1009041F215532A46012103
:102AC00000F0D3FA3222FFF7FAFC30461BE00C206C
:102AD000C4F8C00004F1D00102A84CC84CC1A06BDE
:102AE000D0F8300320B1FFF78EFF04D40A2001E0B4
:102AF0006068401C60600FF24000009041F2335368
:102B000000F0B1FA002005B0F0BD00003D3E20709D
:102B1000617273652066696E6973686564000000A0
:102B20006261642066696E6973686564206D6573AF
:102B300073616765000000003C3D20706172736541
:102B40002066696E697368656400000038B50446E4
:102B50004FF4527105F026FD4FF4A8702518284651
:102B600002F080F80021284602F088F84FF4E07067
:102B70002518284602F0E8FD0121284602F0F0FD64
:102B8000DFF8C00AC4F898020021204600F08AFD50
:102B9000201D05F043FD0320C4F8400131BD0000B5
:102BA000EC370108943801080089FFFF0086FFFF19
:102BB00000F0F3BC38B50446A06C08B100F034FC5A
:102BC000606B08B100F070FCA06B08B100F046FC2F
:102BD000A06C2B4D20B92A68C02101209047A06429
:102BE000606B20B92A687821012090476063A06B50
:102BF00028B92A684FF4527101209047A063A06B56
:102C000000281CBFA06C002801D0606BC8B90FF26F
:102C10008000DFF8F023194D009041F29A53012112
:102C200000F023FAA06B29688847A06C29688847C0
:102C3000606B296888470020A063A0646063124825
:102C400032BDFFF7B5FFA56CC021284605F0AAFCF0
:102C500005F1500001F022F905F1880001F01EF99C
:102C600005F1380000F063FF05F1440000F05FFF5C
:102C7000A06BFFF76BFF002032BD0000280300208F
:102C800024030020482D01080081FFFF80D7FFFFAB
:102C9000616C6C6F632829206F662073736C2073DE
:102CA00075622D636F6E7465787473206661696CEC
:102CB000656400007CB50446DFF88C59216041F260
:102CC000B5362A68314601209047A06538B12A6898
:102CD00031460120904704F18C01086098B90FF249
:102CE000680000F0D8F8019641F2F353012100F09A
:102CF000BCF9DFF85819A06D096888470020A06565
:102D0000DFF84C0976BD48600868083088600868BC
:102D10000B30C86008680D30086108680D304861E4
:102D2000A06DE065A06D08302066A06D0B30606678
:102D3000A06D0D30A066A06D0D30E0662046BDE8A8
:102D4000764037E700000000616C6C6F63282564F3
:102D500020627974657329206661696C656400007E
:102D6000426F61F3000242677047426F61F34102B4
:102D700042677047426F61F3830242677047416365
:102D8000826370478161C26170470161426170472F
:102D900041628261C36100990162704701667047B8
:102DA0004164704770B51646DFF89C2804460D460E
:102DB00012680C210120904700B937E0002105601E
:102DC00081604660216811B9206004E011468A687C
:102DD000002AFBD18860002070BD00008089FFFFC1
:102DE0004830DFE7C1640265704770B50D000446E6
:102DF00007D0284600F0C6FF0646711C01D0FF2E02
:102E000002D9DFF8B80970BDDFF83C28126801204C
:102E10009047C4F8B40000B908E03246294600F0F3
:102E2000D9FFD4F8B4100020885570BDDFF8200811
:102E300070BD016B09B1086E7047406B08B1006E40
:102E4000704700F06BBC38B50446256C0DB9052001
:102E500032BD05F15000FDF7D5F8801E05D0001FEA
:102E600002280CD8A868401D32BD15F150006969D0
:102E70001DBF286D0028406900204018F3E70FF6B9
:102E8000C81000F008F841F64613012100F0EDF8F3
:102E9000DFF8300932BD0FF6541200907047016818
:102EA000DFF81C29496FC06AC1F3821152F8211062
:102EB00030B190F8700052F82000884238BF0146C7
:102EC00008467047DFF8F408704701001CBF0A6825
:102ED000002ADFF8F40800D1F4E792F87420D20752
:102EE0005CBF084607F0F4BF704700000082FFFF98
:102EF00070B50446002582B0002C1CBF2068002855
:102F000000D17CE00FF234000FF6E006009041F6AD
:102F10009D13324600F0A8F86068102804D02046BF
:102F2000FFF7D3FF0500F7D00FF22000009041F625
:102F3000A713324600F098F8284676BD3D3E20683B
:102F4000616E647368616B65000000003C3D206841
:102F5000616E647368616B65000000007CB50446B7
:102F60000FF64810FFF740FD41F6D41300F07BF850
:102F70002046FFF71FFEB8B960600120A060204620
:102F8000FFF7B6FF060007D00FF63010009001964D
:102F900041F6EB13FFF797BA0FF63810009041F6A1
:102FA000EF1300F060F8002076BD7CB504001CBF74
:102FB0002068002807D0A0680FF6300501280FD040
:102FC0006068102800D01AE02046FFF7C7FF06000F
:102FD00013D00FF610100090019641F61C230AE062
:102FE0002046FFF785FF060007D00FF6D0000090BF
:102FF000019641F62423FEF7DFFE304676BDDFF86A
:10300000BC0776BDEC37010870B5044682B0606835
:10301000102814D1A06803281FBF2568686FC0F36B
:10302000802000280BD0E06D00F018F80646D4F898
:10303000900000F013F8012EB8BF012801DA00203B
:1030400076BD0FF6B800FFF726FF41F647230121B2
:1030500000F00BF82046BDE87640A6E7082205F10F
:10306000680105F019B92A460221204601F09DB8F1
:103070002DE9F24F82B005001ABF28680028DFF85A
:103080003C0791465ED00FF6A0000FF2607BDFF8A0
:103090003C87009041F657235A46022100F00FF971
:1030A0002846FFF7B1FF0746474518BF002F06D057
:1030B0000FF67C000197009041F67923A1E0686843
:1030C00010280ED02846FFF713FF0746474518BFC4
:1030D000002F06D00FF2E4700197009041F6842390
:1030E0008FE0286F002805F1880740F0C280696DE5
:1030F000080009D0E86C884710F1010F04D1286856
:10310000016E2846FCF79CFF2846FEF717FB0600D9
:103110000FF28074DFF8B8A606D0564511D001969C
:10312000009441F6BA2312E0A86F002804BF686F2C
:1031300017280FD12846FEF701FB06000AD0564596
:1031400001D10020B2E00196009441F6C92300F0BD
:10315000AFF883E0686FDFF87C46DFF87C661628FE
:1031600053D10FF2E870009041F6D12300F0A5F89A
:103170002868416FCA070DD4EA6E1278002A04BF8E
:10318000D5F88020042A05D00FF2DC70009041F6BB
:10319000DE2361E0C1F3802139B1796B002902BFE0
:1031A000406FC0F3011000281DD10FF2E4700090B1
:1031B00041F603335A46032100F081F8686901287B
:1031C00007DB642201212846FEF7A5FC00283AD03F
:1031D0006CE00FF27460009041F61F3300F06DF860
:1031E000DFF8E00562E02846FFF7B8FE07464745EE
:1031F00018BF002F27D00FF2EC600197009041F626
:10320000353300F055F8384650E0A96803290FD14E
:1032100029684A6E002A0BD4EA68521CEA60496E9B
:10322000914205DA0FF29070009041F6433313E0BB
:1032300015280AD10FF2B470009041F64D335A466A
:10324000022100F03CF8204630E0172808D00FF2A9
:10325000C470009041F6533300F02FF8304625E05B
:10326000E86E28676868102803D100212846FCF71B
:10327000E7FEA86F296F814588BF814602984A46BC
:1032800000F0A8FDA86FB0EB0900A86741F68233F3
:1032900007BF00213960286F484428675A460FF25B
:1032A00094700090022100F00AF84846BDE8FE8FB5
:1032B0005A460121284600F09EBF5A460121284661
:1032C00000F073BFF0B583B004460F461646FFF713
:1032D000E6FD054604F1A000B54288BF3546C16849
:1032E0000FF2085659B12046FDF7F8FE07001AD034
:1032F0000FF268500197009041F6A63311E01721B4
:10330000856041602A460068394600F063FD00F0A0
:103310000FF8070007D00FF260500197009041F6B8
:10332000B233324607E02846FEBD6068401C60604C
:103330002046FDF7A9BFFEF740FD3846FEBD2DE94A
:10334000FC4104460FF2F460FFF74EFB0E46904638
:1033500041F6E733FFF787FE002C1ABF20680028EC
:10336000DFF858042AD02046FFF74EFE070005D0AC
:10337000019741F6EF330FF2B8500CE06068102867
:103380000ED02046FFF7B4FD070009D0019741F6A3
:10339000F8330FF228500090FEF70EFD38460DE08E
:1033A000424631462046FFF78DFF06460FF29860F1
:1033B000009041F60343FFF756FE3046BDE8F68124
:1033C0007CB504001CBF2068002800D117E60FF26E
:1033D0008460FFF709FB41F61243FFF744FED4F87F
:1033E000AC0020B12046BDE87640FDF777BE6068AE
:1033F00010280DD100220121FFF762F8060007D046
:103400000FF268600090019641F61D43FFF75BB82C
:103410000FF27860009041F622432A4602212046AE
:1034200000F0C3FE002076BD10B5040015D004F1F5
:10343000500000F036FD04F1880000F032FD04F188
:10344000380000F079FB04F1440000F075FB2046E1
:10345000BDE81040C021FCF7EEBD10BD70B5040002
:1034600021D04FF4A870204401F0FFFB4FF4E0702E
:10347000204402F06CF9201D05F0D4F84FF49C7044
:103480002518724E286831688847E86820B1856839
:10349000316888472800FAD12046BDE870404FF4D3
:1034A0005271FCF7C8BD70BD38B504000ED0E06D98
:1034B000664D20B104F070FEE06D29688847606EAB
:1034C000296888472046BDE83440D1E031BD00007E
:1034D0008081FFFF2DE9F041040082B05AD00FF245
:1034E000C4500FF20835DFF8F472009041F6B04393
:1034F000FFF7B9FD04F1300641F2B538F06D28B19F
:103500004146FCF798FDF06D39688847B06A28B1EC
:103510004146FCF790FDB06A39688847706920B170
:10352000FFF782FF706939688847B06880B1FFF79C
:1035300095FFB069FFF778FF7068FFF7B5FFB068D7
:1035400039688847B069396888477068396888473A
:10355000306820B1FFF7A8FF306839688847D4F891
:10356000B46056B1304600F00DFC01463046FCF721
:1035700062FDD4F8B400396888470FF230500090EB
:1035800041F6F143FFF76FFD2046BDE8FC41DC2129
:10359000FCF751BDBDE8F38100BF782105F002B80A
:1035A000F8B504460F4616461D46FFF7D9FB3146CF
:1035B0002046FFF7DAFB04F170063FB9706820F08F
:1035C0000C0040F4805040F00800706002217068E8
:1035D000834F40F4007070601020606604F1680052
:1035E00004F0E0FFFF22062104F16A0007F0AEFFBD
:1035F000022D12D10320B070F0703070707007F19E
:103600001400E060A060606020607648606407F1AC
:103610002000606507F12C0011E00320B07001204C
:10362000F07003203070707001F096F8E060A060D8
:103630006060206067656C48606407F0BBFFA06550
:103640000020F2BDED2401082403002028030020FF
:103650000081FFFF70B50446604DA06C002803E0B8
:103660008668296888473000FAD12046BDE8704056
:103670007821FCF7E0BC10B50446012104F079FE86
:1036800008B1012010BD0421204604F072FE00B1F3
:10369000032010BD012804D0032801D10420704765
:1036A000002070470170417070470000401E0528DF
:1036B00010D8DFE800F0030507090B0D0320704761
:1036C0000420704705207047062070470720704788
:1036D0000820704700207047C01E052810D8DFE87A
:1036E00000F0030507090B0D012070470220704709
:1036F000032070470420704705207047062070475C
:10370000002070470068806D40B190F900202AB118
:1037100010F9012B8A42F8D1002070474FF0FF309A
:1037200070470068406D38B102682AB150F8042B28
:103730008A42F9D100207047F0E72DE9F0410446B4
:10374000174600260020012F1D460FD191F90A10BF
:10375000491E09D0491E022908D9491F04D0891ED3
:10376000012998BF082002E0202000E080200146C7
:10377000204604F0DDF84FF0FF3820B1286840F40F
:10378000006028604646012F0CBF0FF228310FF26F
:1037900030310822204604F0E5F820B1286840F4D2
:1037A0008050286046463046BDE8F0811870597058
:1037B00070471A780260587808607047008FFFFFE2
:1037C000E00200200094FFFF808FFFFF0095FFFFC5
:1037D000808DFFFF0097FFFF0089FFFF2803002077
:1037E000B0020020CCBC030888820108433A5C5335
:1037F000544D333243756265457870616E73696FFD
:103800006E5F436C6F75645F4157535F56312E3264
:103810002E305C4D6964646C6577617265735C54CD
:10382000686972645F50617274795C6D626564543A
:103830004C535C6C6962726172795C73736C5F7417
:103840006C732E630000000073686F756C64206EEB
:10385000657665722068617070656E006D62656482
:10386000746C735F73736C5F666C7573685F6F7590
:1038700074707574000000006D626564746C735F31
:1038800073736C5F77726974655F7265636F72647E
:10389000000000006D626564746C735F73736C5F2D
:1038A000726561645F7265636F7264003D3E207291
:1038B000656E65676F746961746500006D6265644B
:1038C000746C735F73736C5F68616E647368616B53
:1038D000650000003C3D2072656E65676F7469612C
:1038E0007465000073736C5F73746172745F7265EA
:1038F0006E65676F74696174696F6E007265636F7E
:10390000726420636F756E746572206C696D697482
:1039100020726561636865643A2072656E65676FE1
:1039200074696174650000003D3E20726561640049
:1039300073736C5F636865636B5F6374725F7265FA
:103940006E65676F74696174650000007265636518
:10395000697665642068616E647368616B65206D6B
:10396000657373616765000068616E647368616B9D
:103970006520726563656976656420286E6F7420C2
:1039800048656C6C6F526571756573742900000031
:103990007265667573696E672072656E65676F74B0
:1039A000696174696F6E2C2073656E64696E67203F
:1039B000616C65727400000072656E65676F746992
:1039C0006174696F6E207265717565737465642CBE
:1039D00020627574206E6F7420686F6E6F726564FC
:1039E00020627920636C69656E74000069676E6F90
:1039F00072696E67206E6F6E2D666174616C206EE9
:103A00006F6E2D636C6F7375726520616C65727477
:103A100000000000626164206170706C6963617411
:103A2000696F6E2064617461206D65737361676591
:103A3000000000003C3D2072656164003D3E20773F
:103A400072697465000000003C3D207772697465FE
:103A5000000000003D3E20777269746520636C6F42
:103A60007365206E6F746966790000006D6265642D
:103A7000746C735F73736C5F73656E645F616C65A8
:103A800072745F6D65737361676500003C3D2077FC
:103A90007269746520636C6F7365206E6F746966FC
:103AA000790000003D3E2066726565003C3D206661
:103AB000726565002B060105050703010000000083
:103AC0002B0601050507030200000000002207F095
:103AD00041BD03681AB95A1E02600846704719783A
:103AE00011B94FF0FF307047591C016018787047CA
:103AF000002918BFFFF7EABF70470000C01E062864
:103B000013D8DFE800F004080A0C0E1006008E48F7
:103B100070478E4870478E4870478E4870478E4871
:103B200070478E4870478E487047002070470021CC
:103B3000002200230EC0704710B504001CBF21688E
:103B4000002913D0606808B1496A8847A06840B16D
:103B50002168C9684900FFF7CBFF8249A06809685E
:103B600088472046BDE810400C21C1E710BDF8B5DC
:103B700004460D0018BF002C164601D17A48F2BD4C
:103B8000286A7A4F8047606050B15EB1784AE96830
:103B9000126802209047A06020B96068696A88476F
:103BA0003846F2BD25600020F2BD80B500281CBF5C
:103BB0000168002900D104E04068096988470020B5
:103BC00002BD694802BD80B500281CBF0368002BF8
:103BD00000D1F6E740685B699847002002BD80B5D8
:103BE00000281CBF0268002A00D1EAE740689269F9
:103BF0009047002002BD10B50400084611461A4641
:103C000000D15CE0E3699847002010BD2DE9F04148
:103C100090B004000D461CBF21680029904601D0D9
:103C2000A06808B9504839E0C868404510D200F093
:103C300088F8236860685B6942462946984722688D
:103C400060689269694690472068D0F808806D46A0
:103C50002068A768C1687E183622384607F076FCCF
:103C60002068C1685C22304607F070FC002008E044
:103C7000395C2A5C514039542A5C315C51403154E2
:103C8000401C4045F4D340216846FFF731FF00F067
:103C900057F800F03DF839469847002010B0BDE8CD
:103CA000F08110B500281CBF0368002B01D0846888
:103CB00004B904E040685B699847002010BD2A48B9
:103CC00010BD70B590B004001CBF2268002A0D46DC
:103CD00001D0A06808B9244817E0D1689269461855
:103CE00060686946904700F02BF800F011F8314603
:103CF000984723689A6860685B69694698472268B4
:103D00006068926929469047002010B070BD00009D
:103D10002368DA6860685B69704738B504001CBFC7
:103D20002168002901D0A5680DB90F4832BD00F007
:103D300008F8FFF7EDFF29469847002032BD000044
:103D40002168606809690847FCC903082CCA030890
:103D50005CCA03088CCA0308BCCA0308ECCA03087F
:103D60001CCB03082803002000AFFFFF80AEFFFF3D
:103D70002403002008B18068C0B2704700B14068D9
:103D80007047000000F10103810704D010F8011B07
:103D900089B18107FAD10268B2F10131914311F082
:103DA000803F04BF50F8042FF6E710F8011B11B153
:103DB00010F8011BFBE7C01A70478268521C826032
:103DC000426832B10268531C036011704168491E99
:103DD0004160704762B38B0708D0521E11F8013B57
:103DE00000F8013B00F024808B07F6D1830740F0F8
:103DF000208000BF103A07D330B4B1E83810103A31
:103E0000A0E83810F9D230BC530724BFB1E808103D
:103E1000A0E8081044BF51F8043B40F8043BD20727
:103E200024BF31F8022B20F8022B44BF0B7803701B
:103E30007047083A07D3B1E80810083A40F8043B45
:103E400040F804CBF7D25307E4E70268531C036041
:103E500011707047DFF8102300E00832516829B173
:103E600092F900308342F8D108467047002070472D
:103E700030B5DFF8F43200E008335C6864B1A5695E
:103E800095F90050854201BF65688D4294F9014063
:103E90009442F1D1586830BD002030BD382104F083
:103EA00081BB10B504000BD0606B18B12168896923
:103EB000496988472046BDE810403821FFF706BE13
:103EC00010BD38B504460D0018BF002C00D14EE0DF
:103ED000382104F067FBA86900698047606310B966
:103EE000DFF8880232BD2560002032BD70B50400C5
:103EF0001CBF2568002DDFF878021DD02E7CB60788
:103F000002D46E68964217D162602372012B1EBFE5
:103F100095F90120032A052A06D1AB696268606B16
:103F20009B68BDE87040184733B9AB696268606B45
:103F3000DB68BDE87040184770BD38B504001CBF91
:103F40002068002813D091B1112A01D3894832BDCD
:103F5000037CDB0708D515462A4604F12000FFF74D
:103F600039FF2563002032BDC568AA42F4D28048DB
:103F700032BD00281CBF0168002900D15AE0002191
:103F8000C16100207047F8B5040008461CBF2568D1
:103F9000002D11462DD0069A5AB30026166095F9C9
:103FA00001706E69012F0CD1B14201D07248F2BD8F
:103FB0001160024694F90810606BAC696468A04710
:103FC000F2BD062F07D111600246606B01B0BDE85B
:103FD000F04009F020BC0EB96848F2BD98420AD101
:103FE000E069002802BFB1FBF6F006FB10100028C4
:103FF00001D05F48F2BD5F48F2BD00281CBF0168D8
:10400000002900D002B915E00023136091F90110D6
:10401000032918BF052903D0062918BF072901D194
:1040200000207047012903D1C06910B15248704780
:10403000504870474E487047F0B583B005461E465D
:10404000FFF77BFFC8B92846FFF793FFA8B9099F80
:104050000A9C089A00943B4631462846FFF793FF96
:1040600058B92068391801AA2846FFF7C6FF20B9B9
:1040700020680199081820600020FEBD2DE9F0435A
:1040800087B0046894F901900E9D0F9EDDF8408082
:10409000119FDDF848C0DDF84CE0149CB9F1060F23
:1040A00010D1CCF80080CDF818E005940193049766
:1040B0000396029500920B46406B4246012109F09F
:1040C000A4FC11E0B9F1080F0DD1CCF800800594E3
:1040D0000093CDF810E003970296019500F053F895
:1040E00009F08DFE00E0234807B0BDE8F0832DE91C
:1040F000F04786B0046894F901A00E9E0F9FDDF88A
:104100004080DDF844C0DDF848E0139C149DDFF8E2
:104110007090BAF1060F0ED1CEF80080CDF814C021
:10412000049703950294009300F02CF809F08AFCA0
:1041300010F1120F10E0BAF1080F10D1CEF8008084
:10414000059504940093CDF80CC0029700F01AF87E
:1041500009F06BFE10F10F0F02D1484600E0054850
:1041600006B0BDE8F087000070C20308809EFFFF24
:10417000009FFFFF809FFFFF809DFFFF809CFFFF50
:10418000009DFFFF019613460A46406B414670476B
:10419000DFF8FC140860704710B582B0046804981A
:1041A000009060692469A04713BDF0B5ADF5017DAD
:1041B00004001CBF206800280D4616461F4617D075
:1041C0000069A8B100F0F4F812DB869A87AB4FF4CF
:1041D000007101A809F058FEB0F5FF7F05D801AACB
:1041E0000A21115410440021417001A800F028F860
:1041F0000DF5017DF0BDF0B50446ADF5037D2068F9
:1042000000281CBF006900280D4616461F4614D022
:1042100000F0CEF811DB899810F5D24F0DD0414255
:10422000019100904FF40071889B0FF2684202A840
:1042300009F048FE02A800F003F80DF5037DF0BD7B
:1042400000903B46324629462046A5E72DE9F04F2F
:104250000446ADF5077D2068002500281CBF0069D5
:104260000028884691469B465ED0DFF8240400680B
:10427000404559DB929F0FF238420FF2504A0097A7
:104280004FF40071909B06A809F01CFE00F055F851
:10429000112101A804F086F9002604E001A906F026
:1042A0000F02761C8854BE4238BFB6F5805F27D215
:1042B00016F00F0F13D15EB106A801AB524600F005
:1042C00037F800F03AF8112101A804F06BF9002545
:1042D00006A833460FF2FC3200F02AF845199198EF
:1042E0000FF2F832835D06A800F022F84519919884
:1042F000805DA0F120015F2934BF40B22E20CDE7C0
:104300002FB911E076A209F0DDFD4519761C06A84B
:10431000401916F00F0FC5F50071F3D101AB5246ED
:1043200009F0D0FD00F009F80DF5077DBDE8F08F2C
:10433000C5F50071401909F0C5BD06A800905B469F
:104340004A464146204627E72DE9F0430446ADF5AD
:10435000037D206800281CBF006900280D46904698
:1043600099461CD000F024F819DB8A9E0FF27432B3
:10437000334600F018F88B9F019700F01DF800F00D
:1043800022F833460FF2643200F00DF807F10C000A
:1043900001904B4602A800F02AF900F014F80DF540
:1043A000037DBDE8F0834FF4007102A809F08ABDD7
:1043B000B7480068A842704702A800904B464246A2
:1043C0002946204670472DE9FD4FADF5027D006876
:1043D000012600281FBF006900288F9D002D8846F8
:1043E0004FF000096BD0AA480068404567DB686859
:1043F000441E00E0641E24B1A86850F82400002880
:10440000F8D01F20A96851F82410C140C90701D471
:10441000401EF7D500EB4410401C00904FF4007193
:104420008E9B0FF2D02201A809F04CFD00F05AF843
:10443000641C4F4635E01EB100F045F800282FD02F
:104440004FF0030A4FEACA0B2EB100F03CF820FAF5
:104450000BF0000621D0F81007EB107000260011B9
:10446000B7EB001006D1012F04DB00F032F800F0AA
:1044700039F8B146A8680FF2642200EB8400C9F550
:10448000007150F8040C20FA0BF000F0FF0301A8B3
:10449000484409F017FD81447F1CBAF1010AD1D5C7
:1044A000641EC8D13EB101A876A2C9F50071484486
:1044B00009F008FD814400F00CF800F013F80DF548
:1044C000057DBDE8F08FA86800EB840050F8040C6F
:1044D000704701A86CA2C9F50071484409F0F2BC0C
:1044E0002020200001A80090849B839A8298414656
:1044F00052E62DE9F04F8FB00446884691469B4620
:10450000242106A804F04EF8199806A904F00CF826
:1045100028B10FF20020009000F039F82BE00025C0
:104520000FF20C260FF2002A0C2106A86943471847
:1045300097F90000F8B17868189B00905246102156
:1045400002A809F0BFFC00208DF81700385601289A
:1045500004D100F013F8FFF736FF09E0022804D178
:1045600000F00CF8FFF7F0FE02E0009600F00FF804
:104570006D1C032DD8D30FB0BDE8F08FB868019043
:104580005B4602A800904A464146204670475B467B
:104590004A4641462046FFE52DE9F043ADF5017D51
:1045A0000D4688990446904699460E4617E00A281B
:1045B00014D1701A471CB7F5007F28BF40F2FF17CF
:1045C0003A4601A8FFF706FC01A90020C8554B4652
:1045D00001A800F00CF8FFF7DFFD711C761C96F9BE
:1045E00000000200E3D10DF5017DBDE8F0830090ED
:1045F00042462946204670472DE9F0470446ADF56E
:10460000C16D2068002600281CBF006900280D46E7
:104610009046994631D0DDF82C7677B3FFF7C8FE87
:104620002BDBDDF828A6761C009653460FF21412F9
:104630004FF400710DF5816009F044FC0DF58160C7
:10464000FFF7BBFEFFF7A8FD3B4610A240F2FF318B
:1046500002A802F0D1FDFFF7AFFEFFF79DFF07F1C3
:10466000BC0001904B460FF2E800FFF7C0FFFFF7D8
:1046700040FFD7F83071002FD5D10DF5C16DBDE8E1
:10468000F0870000203030000A0000000000000029
:104690009C0D0020257328292072657475726E6543
:1046A0006420256420282D307825303478290A00AC
:1046B00064756D70696E672027257327202825751E
:1046C000206279746573290A000000002020257398
:1046D0000A000000253034783A20000020253032CE
:1046E00078000000257328582900000025732859F8
:1046F0002900000076616C7565206F6620272573A0
:1047000027202825642062697473292069733A0A76
:1047100000000000696E76616C696420504B206374
:104720006F6E746578740A002573257300000000AD
:1047300073686F756C64206E6F742068617070654B
:104740006E0A00002573202325643A0A0000000049
:104750006372742D3E00000070B50F4C2068C0B924
:104760000FF29405261D0AE000F018F800281FBF7C
:1047700090F908002A28286846F8040B2D1D28689F
:1047800018B104F13C018E42EED3002030600120CC
:104790002060201D70BD0000EC0C00200FF2E42111
:1047A00000E020310A681AB18242FAD10846704707
:1047B0000020704780B5FFF7F1FF10B90FF230000D
:1047C00002BD406802BD90F90A00401E022807D9C8
:1047D000C01E07D0C01E03D0801E012804D905E0EA
:1047E0000120704704207047022070470020704766
:1047F000756E6B6E6F776E002CC0000030C00000CD
:104800009F000000ADC000009FC0000024C0000059
:1048100028C000006B0000000AC0000014C00000A7
:1048200039000000AFC00000A3C0000087C0000036
:104830008BC000007DC0000073C0000077C0000086
:10484000C4000000880000002BC000002FC0000042
:104850009E000000ACC000009EC0000023C000000D
:1048600027C000006700000009C0000013C000005E
:1048700033000000AEC00000A2C0000086C00000EF
:104880008AC000007CC0000072C0000076C000003A
:10489000BE0000004500000008C0000012C000007B
:1048A00016000000AB000000A7C0000038C00000E8
:1048B000B300000036C000009100000091C000006D
:1048C0009BC0000097C00000ABC00000AA00000021
:1048D000A6C0000037C00000B200000035C00000D4
:1048E0009000000090C0000096C000009AC0000038
:1048F000AAC0000034C000008F000000FFC000000C
:104900009D0000009DC000003D000000350000003B
:1049100032C000002AC000000FC000002EC00000FE
:1049200026C0000005C00000A1C000007BC0000040
:10493000C0000000840000008DC0000079C00000AD
:1049400089C0000075C000009C0000009CC00000F1
:104950003C0000002F00000031C0000029C0000012
:104960000EC000002DC0000025C0000004C00000E3
:10497000A0C000007AC00000BA00000041000000A2
:104980008CC0000078C0000088C0000074C0000027
:104990000A0000000DC0000003C00000AD000000D0
:1049A000B70000009500000093C0000099C000000F
:1049B000AC000000B60000009400000092C00000AF
:1049C00098C0000093000000A9000000A5C00000EE
:1049D000AF0000008D0000008FC0000095C00000F7
:1049E000A9C00000A8000000A4C00000AE000000A4
:1049F0008C0000008EC0000094C00000A8C0000021
:104A00008B00000007C0000011C0000033C0000090
:104A10008E00000005000000040000000CC0000033
:104A200002C00000920000008A0000001500000093
:104A30000900000006C0000010C000003BC00000DC
:104A40003AC0000039C00000B5000000B40000000A
:104A50002D0000003B0000000200000001000000EB
:104A60000BC0000001C00000B9000000B800000049
:104A70002E000000B1000000B00000002C0000007B
:104A8000000000002BC00000E0C703080E06040071
:104A9000030000000300000003000000030000000A
:104AA000000000002CC0000008C803081007040024
:104AB00003000000030000000300000003000000EA
:104AC00000000000ADC0000030C803082D0604003F
:104AD00003000000030000000300000003000000CA
:104AE00000000000AFC0000054C803082D060400F9
:104AF00003000000030000000300000003000000AA
:104B000002000000ACC0000078C803082B060400B7
:104B10000300000003000000030000000300000089
:104B200000000000AEC000009CC803082B06040073
:104B30000300000003000000030000000300000069
:104B4000020000002FC00000C0C803080E060300CA
:104B50000300000003000000030000000300000049
:104B60000000000030C00000E8C803081007030080
:104B70000300000003000000030000000300000029
:104B8000000000009D00000010C90308100701008C
:104B90000300000003000000030000000300000009
:104BA000000000009C00000030C903080E06010050
:104BB00003000000030000000300000003000000E9
:104BC000000000009DC0000050C903082D06010030
:104BD00003000000030000000300000003000000C9
:104BE00000000000A1C000006CC903082D060100F0
:104BF00003000000030000000300000003000000A9
:104C0000020000009CC0000088C903082B060100B8
:104C10000300000003000000030000000300000088
:104C200000000000A0C00000A4C903082B0601007A
:104C30000300000003000000030000000300000068
:104C40000200000000000000C0C9030800000000CE
:104C50000000000000000000000000000000000054
:104C6000000000006C2103F09DBC00281CBF6C21DB
:104C7000FEF72CBF70476C22FFF7BCB80022026021
:104C80004260B9B9DFF840298260DFF84029C2608C
:104C9000DFF83C290261DFF83C294261DFF838295E
:104CA0008261DFF83829C261DFF834290262DFF857
:104CB000342916E0DFF830298260DFF83029C2603D
:104CC000DFF82C290261DFF82C294261DFF828295E
:104CD0008261DFF82829C261DFF824290262DFF847
:104CE00024294262816670472DE9F14FCEB000223F
:104CF00006A84E9B03EB82039B6840F82230521CAF
:104D0000082AF6D3002201EB82035D781C782D047B
:104D100045EA04649D78DB7844EA052423430EAC1D
:104D200044F82230521C102AEDD300210469D0F837
:104D30001C90D0F81480D0F818E00FF6CC03D0F80F
:104D400008C04FEAF42A8AEAB41585EA7465A944D2
:104D50008EEA080525400EAA03EB810385EA0E05BD
:104D600002EB8102A9441D681668D0F80CA04D44DE
:104D700006EB050B069ED0F8049035464FEA7535D4
:104D800085EAB606069D86EAB557069E49EA0606F6
:104D900009EA050506EA0C0635433D44DA44AB440E
:104DA0004FEAFA2585EABA1585EA7A65AE4488EABB
:104DB000040505EA0A0585EA0805C0F80CA0C0F854
:104DC0001CB0AE445D68069F069EAE445568AE4476
:104DD0004FEA7B3547EA0B0785EABB0506EA0B0677
:104DE00007EA090785EABB553E437519F444AE440A
:104DF0004FEAFC2585EABC1585EA7C65A84484EA6F
:104E00000A0505EA0C056540C0F808C0C0F818E0BE
:104E1000A8449D68A8449568A8444FEA7E3585EA71
:104E2000BE0585EABE5500954BEA0E06069F0BEAC5
:104E30000E053E402E43009D7519C144A8444FEA1B
:104E4000F92585EAB91585EA79652C198AEA0C05F0
:104E500005EA090585EA0A05C0F80490C0F814803F
:104E60002C19DD682C19D5682D194FEA78344EEAD3
:104E7000080784EAB8040EEA080607EA0B0784EA82
:104E8000B8543E433619069C2F19069774190461CD
:104E9000069D2E464FEAF62686EAB51787EA75651F
:104EA000AA44069D8CEA0906354085EA0C05AA4409
:104EB0001D69AA44156955444FEA743A8AEAB40652
:104EC00086EAB45A48EA040708EA040607EA0E0725
:104ED0003E43564405EB0B0A06EB050B4FEAFA2559
:104EE00085EABA1585EA7A65C0F81CA0C0F80CB04E
:104EF000AC44069D89EA050505EA0A0585EA090527
:104F0000AC445D69AC44556965444FEA7B3C8CEA2E
:104F1000BB0686EABB5C44EA0B0704EA0B0607EA19
:104F200008073E43664405EB0E0C06EB050E4FEA00
:104F3000FC2585EABC1585EA7C65C0F818C0C0F878
:104F400008E0A944069D85EA0A0606EA0C067540B3
:104F5000A9449D69A9449569A9444FEA7E354BEA65
:104F60000E0785EABE050BEA0E06274085EABE5508
:104F70003E437519C844A944C0F81480C0F8049091
:104F80004FEAF826069DDB69D26986EAB81686EAFA
:104F9000786675198AEA0C0606EA080686EA0A0A9D
:104FA00055442B44D3184FEA793282EAB9024EEACB
:104FB000090682EAB9520EEA090506EA0B0646EA34
:104FC000050991441A190261083109EB03021029FD
:104FD0000692FFF4ABAE10210591059A059C0EA92F
:104FE00001EB8201049140398A6BD1F804A0134689
:104FF0004FEAF34383EA72428B6B82EA93224B6A55
:105000009A184FEABA4383EAFA1383EADA039A1842
:105010000B689A180EAB039243F82420059B0FF2FD
:10502000E852D0F818C0D0F808B002EB8302029220
:105030000269C3694569069E069F4FEAF22484EA25
:10504000B21484EA7264E3188CEA0504144084EA1A
:105050000C04E318029C2468E318039C04EB030986
:10506000069C4368A6464FEA7E3E8EEAB40484EA74
:10507000B6541F431E4007EA0B0747EA060EA64434
:10508000C4684C44F144C460C0F81C90CF6BD1F8A4
:1050900008803E464FEAF64686EA7747CE6B87EAB7
:1050A000962E8E6AB6444FEAB84686EAF81686EA25
:1050B000D8067644B244049EC6F804A04FEAF42E03
:1050C0008EEAB41686EA7466B44485EA020626407F
:1050D0006E40B4444FEA793E029E069F766847EAE6
:1050E00009071F40B4448EEAB90686EAB95E069EF7
:1050F00006EA09063E43D4447644E344B444C0F887
:1051000008B0C0F818C0D1F80CE0039E0096039FC9
:105110004FEAF746009F86EA7746039F86EA97267E
:10512000CF6ABE194FEABE4787EAFE1787EADE0755
:10513000BE19B044049E361DC6F804804FEAFB2613
:1051400086EABB1686EA7B66751982EA040606EAD9
:105150000B0656407519029EB66875194FEA7C36E3
:1051600086EABC0686EABC560196454409EA0C0666
:10517000009649EA0C06069F3E40009F3E43019F71
:10518000F6194FEAFA47EB1887EA7A474360751930
:1051900087EA9A2A45610F6B0E69BA444FEAB6470F
:1051A00087EAF61787EAD607BA44049F3F1DF24400
:1051B000C7F808A04FEAF32E8EEAB31787EA7367A1
:1051C0003A444FEA753E84EA0B071F4067403A4471
:1051D000029FFF683A448EEAB50787EAB557009701
:1051E0004CEA050E0CEA05070EEA090E4EEA070E18
:1051F000009FBE44069F5244D7190697724400F0A0
:10520000FCF802614F6BD1F814E0B8444FEABE4796
:1052100087EAFE1787EADE07B844B044049E361DCD
:10522000C6F80C800094069C27464FEAF72686EACB
:10523000B41484EA7766009C34193E468BEA03076F
:105240003E4086EA0B063419029E3669341908EB93
:1052500004064FEA723484EAB20484EAB254009439
:1052600005EA020745EA020404EA0C043C43009FF5
:10527000E71906EB090407EB06094FEAFA4787EA44
:105280007A4787EA9A2AC461C0F80C908F6B8E69BE
:10529000BA444FEAB64787EAF61787EAD607BA4410
:1052A000049F3F1DF244C7F810A04FEAF42E8EEA87
:1052B000B41787EA7467BB44069F5F4027404FEAF4
:1052C000793E5F40BB44029F7F69BB448EEAB907C9
:1052D00087EAB957009742EA090E02EA09070EEA7F
:1052E000050E4EEA070E009FD3447744DC44BB44CE
:1052F00000F083F8C0F818C0C0F808B0CF6BD1F840
:105300001CE0B8444FEABE4787EAFE1787EADE078B
:10531000B844B044049E361DC6F814804FEAFC26FB
:1053200086EABC1686EA7C66F318069E86EA0407BF
:1053300007EA0C077E40F318029EB669F31843444F
:105340004FEA7B3888EABB0686EABB5849EA0B0776
:1053500009EA0B0617403E4346445F194761F518BA
:1053600045604FEAFA43096A039E83EA7A4383EA77
:105370009A2333444FEAB14A8AEAF11686EAD10108
:10538000C918049B1B1D714499614FEAF72A069BBB
:105390008AEAB71686EA7766334484EA0C063E400A
:1053A0007440E318029CE469E318CB184FEA7531A6
:1053B00081EAB50181EAB5510BEA05044BEA05051E
:1053C00005EA09052C43641899180161E118069152
:1053D0000599083140290591FFF4FFAD00214E9A4F
:1053E00050F8214002EB8102491C9368E318082918
:1053F0009360F4D34FB0BDE8F08F4FEAF84787EAE7
:10540000784787EA982870472DE9F041160004464E
:105410000D462ED0206800F03F073018B042C7F18B
:105420004008206002D26068401C6060B7B1464509
:1054300014D3E01942462830FEF7CCFC04F12801D1
:105440002046FFF751FC4544A6EB0806002705E07F
:1054500029462046FFF748FC4035403E402EF7D213
:105460003EB132462946E019BDE8F0412830FEF74A
:10547000B1BCBDE8F08130B504460D4683B061682B
:105480002068C90041EA50718DF80310C0000B0C70
:105490008DF801300A0E0B0A010E8DF804108DF8FC
:1054A0000700010C8DF805108DF80020010A8DF819
:1054B00002308DF8061020780FF24C2100F03F00EA
:1054C000382834BFC0F13802C0F178022046FFF717
:1054D0009BFF082269462046FFF796FFA068000E52
:1054E0002870A068000C6870A068000AA870A06806
:1054F000E870E068000E2871E068000C6871E068F0
:10550000000AA871E068E8712069000E287220691D
:10551000000C68722069000AA8722069E87260694C
:10552000000E28736069000C68736069000AA87334
:105530006069E873A069000E2874A069000C6874A3
:10554000A069000AA874A069E874E069000E2875D3
:10555000E069000C6875E069000AA875E069E87503
:10556000206A000E2876206A000C6876206A000AFD
:10557000A876206AE876A06E50B9606A000E287797
:10558000606A000C6877606A000AA877606AE8774A
:1055900037BDF0B59BB004460D4616461F4668461B
:1055A000FFF760FB39466846FFF768FB2A4621464D
:1055B0006846FFF729FF31466846FFF75CFF6846FB
:1055C000FFF753FB1BB0F0BD67E6096A85AE67BB0A
:1055D00072F36E3C3AF54FA57F520E518C68059BD5
:1055E000ABD9831F19CDE05BD89E05C107D57C36AA
:1055F00017DD703039590EF7310BC0FF111558689F
:10560000A78FF964A44FFABE982F8A42914437714C
:10561000CFFBC0B5A5DBB5E95BC25639F111F15935
:10562000A4823F92D55E1CAB98AA07D8015B831277
:10563000BE853124C37D0C55745DBE72FEB1DE8023
:10564000A706DC9B74F19BC1C1699BE48647BEEF52
:10565000C69DC10FCCA10C246F2CE92DAA84744ADD
:10566000DCA9B05CDA88F97652513E986DC631A853
:10567000C82703B0C77F59BFF30BE0C64791A7D532
:105680005163CA0667292914850AB72738211B2EBA
:10569000FC6D2C4D130D385354730A65BB0A6A76A2
:1056A0002EC9C281852C7292A1E8BFA24B661AA8AE
:1056B000708B4BC2A3516CC719E892D1240699D6BE
:1056C00085350EF470A06A1016C1A419086C371E37
:1056D0004C774827B5BCB034B30C1C394AAAD84E15
:1056E0004FCA9C5BF36F2E68EE828F746F63A57850
:1056F0001478C8840802C78CFAFFBE90EB6C50A4E3
:10570000F7A3F9BEF27871C6800000000000000027
:105710000000000000000000000000000000000089
:105720000000000000000000000000000000000079
:105730000000000000000000000000000000000069
:105740000000000000000000D82102F02BBF00285C
:105750001CBFD821FEF7BAB97047D822FEF74ABB62
:105760000022C0E90022C0E9022271BBDFF8A02BB1
:10577000DFF8A03BC0E90423DFF89C2BDFF89C3B5B
:10578000C0E90623DFF8982BDFF8983BC0E908232F
:10579000DFF8942BDFF8943BC0E90A23DFF8902B65
:1057A000DFF8903BC0E90C23DFF88C2BDFF88C3B53
:1057B000C0E90E23DFF8882BDFF8883BC0E910230F
:1057C000DFF8842BDFF8843B2DE0DFF8842BDFF853
:1057D000843BC0E90423DFF8802BDFF8803BC0E97D
:1057E0000623DFF87C2BDFF87C3BC0E90823DFF8D9
:1057F000782BDFF8783BC0E90A23DFF8742BDFF859
:10580000743BC0E90C23DFF8702BDFF8703BC0E974
